S01400004156525F54656D706C6174652E737265638C
S11300004AC0000065C0000063C0000061C0000079
S11300105FC000005DC000005BC0000059C000006C
S113002057C0000055C0000053C0000051C000007C
S11300304FC000000C946F0D4BC0000049C000007D
S11300400C944A0D45C000000C94610E0C94210ED2
S11300503FC000003DC000003BC0000039C00000AC
S113006037C0000035C0000099129D11AB11A811D2
S1130070A811A811A811A811A811A811A811A811B4
S1130080A811AE12A811A811A8115D11A811AB11E5
S1130090A811A811761211241FBECFEFD8E0DEBF3D
S11300A0CDBF12E0A0E0B1E0E0E8FCE202C00590C0
S11300B00D92A03BB107D9F724E0A0EBB2E001C058
S11300C01D92A834B207E1F70E94E1120C943E1687
S11300D097CFCF93DF93EC0188819981009719F032
S11300E04597B9F02FC087E791E09F938F930E94C3
S11300F0CE120F900F900FC04FE050E060E070E020
S113010080EB92E04FD285E190E09983888381E08F
S11301101EC06838D9F4AED6882341F0809100011E
S1130120815080930001882349F0E6CF809100013B
S1130130882321F00E94C70E0E94950E198218820E
S113014082E005C01982188283E001C081E0DF915A
S1130150CF910895CF93DF93EC0188819981833106
S11301609105D1F08A31910571F1892BB1F544E6FD
S113017050E060E070E08CEB92E014D28EE891E005
S11301809F938F930E94CE1283E190E0998388839A
S11301900F900F9081E028C0683819F58EE991E03E
S11301A09F938F930E94CE1244E650E060E070E08B
S11301B08CEB92E0F7D18AE190E0998388830F90E9
S11301C00F9081E011C0683871F48CEA91E09F933C
S11301D08F930E94CE120F900F901982188283E0A1
S11301E003C081E001C081E0DF91CF910895CF93F6
S11301F0DF93FC01208131812115310521F0233168
S11302003105C9F01BC0EC0188EC91E09F938F93FA
S11302100E94CE1288E089B944E650E060E070E0C4
S113022088EC92E0BFD183E190E0998388830F90BA
S11302300F9081E009C0683831F4E5CFFC011182E8
S1130240108283E001C081E0DF91CF9108950F9384
S11302501F93CF93DF93FC0120813181232B29F558
S11302608C0181EE91E09F938F930E94CE128EEFCA
S113027091E09F938F930E94CE12809129019091D7
S11302802A010F900F900F900F90009749F0CBE246
S1130290D1E060E070E002D3899199910097C9F7A9
S11302A0F8011182108282E004C0FC0111821082E4
S11302B083E0DF91CF911F910F9108958091D40233
S11302C09091D502A091D602B091D7020196A11DBA
S11302D0B11D8093D4029093D502A093D602B0931B
S11302E0D7026091D4027091D5028091D602909188
S11302F0D70224E630E040E050E00E941113672B5F
S1130300682B692B99F48091D8029091D902A0911D
S1130310DA02B091DB020196A11DB11D8093D802CF
S11303209093D902A093DA02B093DB0244D1892BD3
S113033009F06AC008956091D4027091D502809149
S1130340D6029091D7020895CF92DF92EF92FF9256
S11303500F931F938091E0029091E102892B49F45D
S11303601092DC021092DD021092DE021092DF0283
S113037044C0E1DF6B017C01E091E002F091E10215
S1130380408151816281738184819581A681B78185
S1130390480F591F6A1F7B1F4C195D096E097F099D
S11303A00084F185E02D3097E1F0008111812281F4
S11303B0338184819581A681B781800F911FA21F0B
S11303C0B31F8C199D09AE09BF0984179507A607A9
S11303D0B70710F4AC01BD010084F185E02D30971E
S11303E021F74C0D5D1D6E1D7F1D4093DC02509363
S11303F0DD026093DE027093DF021F910F91FF9084
S1130400EF90DF90CF90089583E391E06BC208955D
S1130410CF92DF92EF92FF920F931F93CF93DF93CC
S11304208C01FC0180819181009719F0C19761F0E2
S113043076C01092E1021092E00281E390E0F801AC
S11304409183808381E06FC0673899F5E091E00281
S1130450F091E102309789F3828593854817590713
S113046019F50084F185E02D309729F41092E1020A
S11304701092E002E2CF828593854817590789F3E9
S1130480F093E102E093E0020FC01A968D919C91E3
S11304901B974817590739F418968D919C91199711
S11304A09187808701C0FD01A085B185109769F708
S11304B0C4CF623811F6C12CD12CC091E002D09186
S11304C0E102209709F4B9CFEC2CFD2C01C0EC011A
S11304D0CE0123D2892BE9F0AE0168E88A859B8599
S11304E0AED1892BA9F41B861A86E114F10431F0EC
S11304F088859985F7019187808706C088859985C5
S11305009093E1028093E002198618861DDFD5CF0F
S11305107BDF888599857E010097C9F68ECFF80127
S11305201182108283E0DF91CF911F910F91FF9090
S1130530EF90DF90CF900895CF93DF93EC0164DFC9
S11305408A859B85892BD1F0E091E002F091E1024C
S11305503097A1F0CE17DF0761F403C0CE17DF0791
S113056041F480918603909187039B878A87ECDE10
S113057016C00084F185E02D309781F780918603C1
S1130580909187039B878A878091E0029091E10292
S113059099878887D093E102C093E002D5DEDF918A
S11305A0CF910895CF93DF93EC01A8D1CE01C4DF9E
S11305B0DF91CF91089581E090E02091E0023091A5
S11305C0E102232B11F480E090E00895CF92DF92B2
S11305D0EF92FF920F931F93CF93DF9300918603C3
S11305E010918703E0908803F0908903E816F906D8
S11305F071F0E114F10409F45FC0F7010190F08196
S1130600E02D8E179F0721F03097C1F755C0FC01EC
S1130610EF2B09F451C06B01EC018885882311F19B
S11306201886E114F10469F0CE15DF0521F0AE015E
S113063067E8C7014AD0F701E080F180E114F104D2
S113064099F7EC81FD81309769F0CC15DD0551F007
S1130650D0938703C093860340E050E063E8CE0163
S113066006960995A0918803B0918903CA17DB0700
S1130670B1F488819981909389038093880318C089
S113068080819181C817D90729F0FC013097C1F7FF
S11306900FC0FD01888199819183808309C01097DF
S11306A039F0ED91FC911197CE17DF0779F7F1CF6F
S11306B01093870300938603DF91CF911F910F91CD
S11306C0FF90EF90DF90CF9008951F93CF93DF9327
S11306D0DC0118962C91189720FF1FC01496ED91F9
S11306E0FC9115973097C9F0162FEC01909387036E
S11306F08093860382E08887CD0106960995082EAB
S1130700000C990B0297029710F0133821F4BE01E4
S1130710CE015CDF02C081E08887DF91CF911F9119
S113072008951F93CF93DF931092E202C091880340
S1130730D0918903209781F011E08985882339F0CD
S11307401887198640E050E062E8CE01BEDF0990C8
S1130750D881C02D209789F7DF91CF911F910895FB
S11307608AE8809385031092830310928403109285
S113077089031092880310928703109286030895C8
S1130780FF920F931F93CF93DF938091E202811125
S1130790C8DF90918403992309F444C02091830312
S11307A030E0F901EE0FFF1FEE0FFF1FE20FF31F02
S11307B0ED51FD4FF080C181D2810380F481E02DA1
S11307C02F5F3F4F2F713078332334F42150310998
S11307D0206E3F6F2F5F3F4F209383039150909380
S11307E084033097B1F400918803109189030115B3
S11307F01105C1F08091E202811193DFAE016F2DEA
S1130800C80163DFF801008111810115110591F719
S113081009C081E8F81202C081E08087AE016F2D23
S1130820CF0153DF8091E2022091840390E0820F94
S1130830911DDF91CF911F910F91FF9008959C011D
S1130840909184039032C9F0E0918303E90FEF7132
S1130850F0E0DF01AA0FBB1FAA0FBB1FEA0FFB1FAB
S1130860ED51FD4F608352834183348323839F5F23
S11308709093840380E090E0089581E090E00895EF
S1130880CF93DF93C0918603D09187031EDFD0936B
S11308908703C0938603DF91CF9108952091880345
S11308A03091890328173907E1F02115310549F002
S11308B0F9010190F081E02D8E179F0791F0309798
S11308C0C1F7009771F0AB01FC0131832083909351
S11308D089038093880321E020871782168261E8C8
S11308E0CFCF0895FC01892B41F09085915092302F
S11308F020F481E081878093E2020895CF93DF930F
S1130900EC014C835D836E837F8315DD688379837B
S11309108A839B83DF91CF910895CF92DF92EF92E8
S1130920FF92CF93DF93EC0106DDC880D980EA8083
S1130930FB80DC01CB018C199D09AE09BF0901962E
S1130940A11DB11D21E030E0CC80DD80EE80FF8070
S1130950C816D906EA06FB0610F020E030E0C9010B
S1130960DF91CF91FF90EF90DF90CF90089588B101
S11309708B7F97B194602D98259A2AB13BB1337F30
S11309803BB92C602AB99C7F97B9836088B90895D4
S11309902F923F924F925F926F927F928F929F928B
S11309A0AF92BF92CF92DF92EF92FF920F931F9379
S11309B0CF93DF93B82E6901442309F4B9C0509052
S11309C08E03E0908C03F0908D0390918B039090B4
S11309D08A03E0918F03F091900320919103C091D9
S11309E03D01DB01415050E04F5F5F4F640F751FC5
S11309F0612C312C412C212CD0E0A12C10E031E0D1
S1130A00712C50E06894882482F8452D8D9195309E
S1130A1009F090C08F3FB9F43BC08F3F09F0A8C0E4
S1130A20C82FD32FA32E252F132F932F3AC08F3FD8
S1130A30C1F1982E232E132F92E033C08F3F19F467
S1130A404F3F09F09AC0E82EF12C332E432E452F48
S1130A50132F93E026C08F3F19F44F3F09F090C045
S1130A6090E0982F8827E80EF91EE114F10409F0AC
S1130A708AC0C92D332E432E452FD32FA32E232FC7
S1130A80132F952F0EC08F3F19F4943009F484C0AE
S1130A908F010F5F1F4F0E151F0509F45DC0982DC0
S1130AA060C0309719F1832FBC12852F8223F1F097
S1130AB0542E111190938B03A11020939103D11103
S1130AC0C0933D01211090928A03411050928E03ED
S1130AD0332021F0F0928D03E0928C03662009F418
S1130AE05EC0F0939003E0938F0359C0A617B70735
S1130AF009F08CCF542E111190938B03A1102093E5
S1130B009103D111C0933D01211090928A034110A9
S1130B1050928E03332021F0F0928D03E0928C03E7
S1130B20662021F0F0939003E0938F0380E037C0B8
S1130B3080E035C0923009F481CF38F4992309F468
S1130B406CCF913009F473CFACCF933009F483CFD9
S1130B50963008F498CFA5CFC92DD32FA32E232FD9
S1130B60952FEC0DFD1D8083F801632E132F99CF73
S1130B70D32FCFEFA32E252F94CF482F432E91CFE1
S1130B80482F432E8ECF632EE0E0F72D332E432ED5
S1130B90452F132F982D85CF132F95E082CFDF910A
S1130BA0CF911F910F91FF90EF90DF90CF90BF9066
S1130BB0AF909F908F907F906F905F904F903F90F9
S1130BC02F900895CF92DF92EF92FF920F931F938D
S1130BD0CF93DF93CDB7DEB7CE5FD1090FB6F894CC
S1130BE0DEBF0FBECDBFE82E6B01FE0131968EEF46
S1130BF0DF011D928A95E9F7109291036894FF240E
S1130C00F2F8F40E0F2D10E00DC0B801CE010196DC
S1130C1078D5811107C096014F2DBE016F5F7F4FBC
S1130C208E2DB6DE80918F0390919003892B69F30A
S1130C3080919103882349F3C250DF4F0FB6F89493
S1130C40DEBF0FBECDBFDF91CF911F910F91FF90FB
S1130C50EF90DF90CF900895CF92DF92FF920F93A1
S1130C601F93CF93DF93CDB7DEB7C451D3400FB6F4
S1130C70F894DEBF0FBECDBF6A0198E0E1E5F1E074
S1130C80DE01119601900D929A95E1F7AE01475F4E
S1130C905F4F22E031E0DA01F9011D923197E9F763
S1130CA09FEFC55FDE4F9883CB50D140C45FDE4FCA
S1130CB01882CC50D1402AE030E0C35FDE4F398344
S1130CC02883CD50D14098E0FE013196ADE0B2E0EA
S1130CD0AC0FBD1F129601900D929A95E1F7C35F78
S1130CE0DD4F8883CD50D240C25FDD4F6883CE5044
S1130CF0D2408AE0FE01E35FFD4FABE0B1E0AC0F10
S1130D00BD1F149601900D928A95E1F76EE070E094
S1130D10CE01855F9E4F41D5FE01E95EFD4F8EEF0A
S1130D20DF011D928A95E9F71092910312E3F12CE9
S1130D3001E012C065E070E0CE01895E9D4FE1D410
S1130D40811109C0960145E0BE01695E7D4F80E1D5
S1130D501FDE811112C0115080918F039091900376
S1130D60892B19F09091910301C09F2D802F1111AF
S1130D7001C08F2D9817F0F280E0CC5EDC4F0FB6E7
S1130D80F894DEBF0FBECDBFDF91CF911F910F91BD
S1130D90FF90DF90CF9008950F931F93CF93DF932D
S1130DA0EC0121153105C9F0FA01420F531F2FEF51
S1130DB08F0190819F3F31F4CE01860F911DDC019C
S1130DC02C936F5FD8019C913196DE01A60FB11D63
S1130DD09C936F5FE417F50759F7862F90E0DF9136
S1130DE0CF911F910F9108950F931F93CF93DF938A
S1130DF08C01EA0122E030E0CFDFAE014E5F5F4FAD
S1130E0022E030E0682FC801C7DFAE014C5F5F4FBE
S1130E1021E030E0682FC801BFDFAE014B5F5F4FB8
S1130E2022E030E0682FC801B7DFAE01495F5F4FB1
S1130E3022E030E0682FC801AFDFAE01475F5F4FAB
S1130E4022E030E0682FC801A7DFAE01455F5F4FA5
S1130E5022E030E0682FC8019FDFAE01435F5F4F9F
S1130E6021E030E0682FC80197DFDF91CF911F9117
S1130E700F910895CF93DF931F92CDB7DEB7AE01E4
S1130E804F5F5F4F60E081E0E7DE811102C082E0E6
S1130E90898389810F90DF91CF9108958F929F92DA
S1130EA0AF92BF92CF92DF92EF92FF920F931F9374
S1130EB0CF93DF93CDB7DEB7C550D2400FB6F894C9
S1130EC0DEBF0FBECDBF7C015B014E0122E0820E6E
S1130ED0911C82E091E0F4019C0111922150304078
S1130EE0E1F7FB0101900020E9F731978F01061B20
S1130EF0170B8FEFCC5FDE4F8883C450D14080E264
S1130F00CB5FDE4F8883C550D140C8010696CA5FC7
S1130F10DE4F99838883C650D1406894CC24C2F8AC
S1130F20DD24D394CC0EDD1E34E0C30ED11C22E0AC
S1130F3030E0A70160E0C6012FDFA7014E5F5F4FDD
S1130F4021E030E0682FC60127DFA7014D5F5F4F26
S1130F5021E030E0682FC6011FDFA7014C5F5F4F1F
S1130F6021E030E0682FC60117DF98012F5F3F4F63
S1130F70A501682FC60110DFBC016C5F7F4FA4017F
S1130F80CE018C5F9E4F09D441E0BE016F5F7F4F5D
S1130F9080E318DE81E09981913009F080E0CB5F35
S1130FA0DD4F0FB6F894DEBF0FBECDBFDF91CF91FA
S1130FB01F910F91FF90EF90DF90CF90BF90AF9073
S1130FC09F908F9008958F929F92AF92BF92CF92ED
S1130FD0DF92EF92FF920F931F93CF93DF93CDB7DE
S1130FE0DEB7C550D2400FB6F894DEBF0FBECDBFFA
S1130FF08C015B01FB0101900020E9F731974F015F
S1131000861A970A6E0122E0C20ED11C82E091E09A
S1131010F6019C01119221503040E1F78FEFCC5F33
S1131020DE4F8883C450D14086E2CB5FDE4F888395
S1131030C550D140C4010B96CA5FDE4F99838883A3
S1131040C650D1406894EE24E2F8FF24F394EC0EE9
S1131050FD1E34E0E30EF11C22E030E0A80160E064
S1131060C7019ADE94012F5F3F4FA501682FC70186
S113107093DEA8014E5F5F4F29E030E0682FC7017F
S11310808BDEBC016C5F7F4FA601CE018C5F9E4F4F
S113109084D341E0BE016F5F7F4F80E393DD81E045
S11310A09981913009F080E0CB5FDD4F0FB6F89461
S11310B0DEBF0FBECDBFDF91CF911F910F91FF9087
S11310C0EF90DF90CF90BF90AF909F908F90089556
S11310D08F929F92AF92BF92CF92DF92EF92FF9244
S11310E00F931F93CF93DF93CDB7DEB7C550D24094
S11310F00FB6F894DEBF0FBECDBF8C015B016E014D
S113110022E0C20ED11C82E091E0F6019C01119212
S113111021503040E1F7FB0101900020E9F73197BD
S11311204F01861A970A8FEFCC5FDE4F8883C45035
S1131130D14087E2CB5FDE4F8883C550D140C401E4
S11311400C96CA5FDE4F99838883C650D140689459
S1131150EE24E2F8FF24F394EC0EFD1E34E0E30EDB
S1131160F11C22E030E0A80160E0C70115DEA8010F
S11311704E5F5F4F22E030E0682FC7010DDEA8010B
S11311804C5F5F4F21E030E0682FC70105DEA80106
S11311904B5F5F4F23E030E0682FC701FDDD940112
S11311A02F5F3F4FA501682FC701F6DDA801485FF7
S11311B05F4F23E030E0682FC701EEDDBC016C5FB8
S11311C07F4FA601CE018C5F9E4FE7D241E0BE0166
S11311D06F5F7F4F80E3F6DC81E09981913009F005
S11311E080E0CB5FDD4F0FB6F894DEBF0FBECDBFFE
S11311F0DF91CF911F910F91FF90EF90DF90CF90EF
S1131200BF90AF909F908F9008958F929F92AF92CE
S1131210BF92CF92DF92EF92FF920F931F93CF93DF
S1131220DF93CDB7DEB7C550D2400FB6F894DEBF1A
S11312300FBECDBF8C015B01FB0101900020E9F7DB
S113124031974F01861A970A6E0122E0C20ED11C13
S113125082E091E0F6019C01119221503040E1F7C7
S11312608FEFCC5FDE4F8883C450D1408AE2CB5FDE
S1131270DE4F8883C550D140C4010896CA5FDE4F53
S113128099838883C650D1406894EE24E2F8FF2401
S1131290F394EC0EFD1E34E0E30EF11C22E030E08A
S11312A0A80160E0C70178DD94012F5F3F4FA501DD
S11312B0682FC70171DDA8014E5F5F4F23E030E066
S11312C0682FC70169DDA8014B5F5F4F22E030E062
S11312D0682FC70161DDBC016C5F7F4FA601CE01A1
S11312E08C5F9E4F5AD241E0BE016F5F7F4F80E317
S11312F069DC81E09981913009F080E0CB5FDD4FBA
S11313000FB6F894DEBF0FBECDBFDF91CF911F9112
S11313100F91FF90EF90DF90CF90BF90AF909F9090
S11313208F9008958F929F92AF92BF92CF92DF9247
S1131330EF92FF920F931F93CF93DF93CDB7DEB756
S1131340C550D2400FB6F894DEBF0FBECDBF8C019E
S11313505B01FB0101900020E9F731974F01861AE8
S1131360970A6E0122E0C20ED11C82E091E0F601E0
S11313709C01119221503040E1F78FEFCC5FDE4F9A
S11313808883C450D1408BE2CB5FDE4F8883C55045
S1131390D140C4018A96CA5FDE4F99838883C650C0
S11313A0D1406894EE24E2F8FF24F394EC0EFD1E81
S11313B034E0E30EF11CA80160E070E0C70114DD25
S11313C0A801425F5F4F23E030E0682FC701E4DCEF
S11313D0A8014F5E5F4F23E030E0682FC701DCDCDB
S11313E0A8014C5E5F4F23E030E0682FC701D4DCD6
S11313F094012F5F3F4FA501682FC701CDDCA801E1
S1131400495E5F4F21E030E0682FC701C5DCA801C9
S1131410485E5F4F24E030E0682FC701BDDCA801BF
S1131420445E5F4F24E030E0682FC701B5DCA801BB
S1131430405E5F4F24E030E0682FC701ADDCA801B7
S11314404C5D5F4F24E030E0682FC701A5DCA801A4
S1131450485D5F4F21E030E0682FC7019DDCBC018F
S11314606C5F7F4FA601CE018C5F9E4F96D141E009
S1131470BE016F5F7F4F80E3A5DB81E099819130EE
S113148009F080E0CB5FDD4F0FB6F894DEBF0FBEEE
S1131490CDBFDF91CF911F910F91FF90EF90DF901F
S11314A0CF90BF90AF909F908F900895CF92DF928E
S11314B0EF92FF920F931F93CF93DF93CDB7DEB7D5
S11314C0C550D2400FB6F894DEBF0FBECDBF8C011D
S11314D06E0122E0C20ED11C82E091E0F6019C0173
S11314E0119221503040E1F78FEFCC5FDE4F8883BB
S11314F0C450D1408CE2CB5FDE4F8883C550D140CD
S113150086E090E0CA5FDE4F99838883C650D1405D
S11315106894EE24E2F8FF24F394EC0EFD1E34E00C
S1131520E30EF11C22E030E0A80160E0C70134DCE6
S1131530A8014E5F5F4F22E030E0682FC7012CDC2A
S1131540A8014C5F5F4F22E030E0682FC70124DC24
S1131550BC016C5F7F4FA601CE018C5F9E4F1DD1F5
S113156041E0BE016F5F7F4F80E32CDB81E0998116
S1131570913009F080E0CB5FDD4F0FB6F894DEBF09
S11315800FBECDBFDF91CF911F910F91FF90EF90D0
S1131590DF90CF900895AF92BF92DF92EF92FF92C7
S11315A00F931F93CF93DF93CDB7DEB7C450D240D0
S11315B00FB6F894DEBF0FBECDBF7C015B01FE0108
S11315C0319682E091E0DF019C011D922150304070
S11315D0E1F721E030E0A70160E0CE01895F9E4F92
S11315E0DBDBD7012C91222399F1D12C2D2D30E076
S11315F08901000F111F000F111F020F131FA801F3
S11316004F5F5F4F4E0D5F1D22E030E0682FCE012B
S1131610895F9E4FC1DBA8014D5F5F4F4E0D5F1D7B
S113162021E030E0682FCE01895F9E4FB5DBF701E2
S1131630E00FF11F238130E044815581682FCE01F2
S1131640895F9E4FA9DBD394F7012081D21670F2F3
S11316502FEFCD5FDE4F2883C350D14020E4CC5F11
S1131660DE4F2883C450D140CB5FDE4F99838883FB
S1131670C550D1408C010C5F1F4FAE014F5F5F4FCF
S1131680B801CE018D5F9E4F88D09501402FBE01D9
S11316906F5F7F4F84E17CD9CC5FDD4F0FB6F89448
S11316A0DEBF0FBECDBFDF91CF911F910F91FF9091
S11316B0EF90DF90BF90AF900895CF93DF93CDB7B5
S11316C0DEB76B970FB6F894DEBF0FBECDBF51E007
S11316D059839B838A834C837E836D83B901CE01B6
S11316E0019659DF8B8F9B8D81E0911101C080E0C1
S11316F06B960FB6F894DEBF0FBECDBFDF91CF91CE
S113170008951F93CF93DF93EC01E5E3F4E0918117
S11317108081981779F190818181981748F490918C
S11317203604EFE3F4E08081981B8281891B26C094
S1131730E5E3F4E080819181891B20C08181A3814C
S1131740B481A80FB11D8C919181A92FB0E02281A1
S113175030E021503109A217B30711F09F5F01C097
S1131760912F918389934F5F5F4F6417750730F70B
S113177080E00FC08DEF0DC086EF0BC090E00197A5
S113178068177907C9F740E050E0E5E3F4E010E0BA
S1131790D5CFDF91CF911F9108950F931F93CF93CE
S11317A0DF936115710549F0082F192FEB01F8013A
S11317B081918F0132D12197D1F7DF91CF911F9180
S11317C00F910895AC0183709927892B61F59A01D3
S11317D03695279536952795ABE7B4E14AD7969584
S11317E0879564E6689F9001699F300D1124421724
S11317F05307D9F49A01329522952F7023273F700D
S11318002327AEE3BAE035D760E971E0869F900103
S1131810879F300D969F300D112481E042175307A6
S113182029F080E0089580E0089581E00895CF9341
S1131830DF93CDB7DEB72C970FB6F894DEBF0FBE9B
S1131840CDBF2CE0E9E5F1E0DE01119601900D92A7
S11318502A95E1F7633008F40197FE01E60FF11DC4
S1131860208150E0420F511D480F591FFC01F6958D
S1131870E795F695E7954E0F5F1F9C0132952295EB
S11318802F7023273F702327AEE3BAE0F2D6480F28
S1131890591F9F01ABE7B4E1ECD696958795481B99
S11318A0590B9A01A3E9B4E2E4D6281B390B369507
S11318B02795820F931F96958795969587959C01FA
S11318C0220F331F220F331F220F331FB901681B4E
S11318D0790BCB01742F781B872F2C960FB6F894B5
S11318E0DEBF0FBECDBFDF91CF910895CF93DF93BD
S11318F0EC014B814F5F6C816F5F8D819E8197DF1F
S11319008F83DF91CF910895EF92FF920F931F93EE
S1131910CF93DF93FC0190819F5F9C3311F0908300
S11319203BC0EF01108281818F5F8C33A1F58281EE
S11319308F5F883171F5F380E48005811681F3941B
S1131940C80199273FDF90E0FC01EE0FFF1FE80F6D
S1131950F91FEE0FFF1FEE0FFF1FE55DFD4FEE0DAC
S1131960F11D8081F81211C081E08E0D8C3059F484
S1131970093388E0180730F40F5F1F4F1E830D836F
S113198080E001C080E08C83F12CFB82CE01AEDFCD
S113199080E08A8380E08983DF91CF911F910F914A
S11319A0FF90EF900895CF93DF931F92CDB7DEB7EA
S11319B08FEF809364008FB78983F89489815F9354
S11319C050E85093610050E0509361005F918FBFE5
S11319D00F90DF91CF910895CF93DF931F92CDB7EE
S11319E0DEB79FB79983F8949981811106C0E4E624
S11319F0F0E060958081682360839FBF0F90DF9142
S1131A00CF91089504C0615071098109910961154C
S1131A10710581059105B9F7089560914104462F38
S1131A2050E041505109EFE3F4E0208191812917FE
S1131A3030F491812081921B262F291B03C0208121
S1131A409181291B30E04217530779F3F894EFE3AF
S1131A50F4E021819081291305C0E1ECF0E090814C
S1131A6090629083EFE3F4E09081A381B481A90FA5
S1131A70B11D8C932081422F50E0828190E0019728
S1131A804817590711F02F5F01C020E020933F044D
S1131A90789408951F920F920FB60F9211242F93EA
S1131AA03F934F935F936F937F938F939F93AF93E2
S1131AB0BF93EF93FF9383E686BD7FD5FF91EF91AC
S1131AC0BF91AF919F918F917F916F915F914F9152
S1131AD03F912F910F900FBE0F901F9018951F925A
S1131AE00F920FB60F921124CF92DF92FF920F93B1
S1131AF01F932F933F934F935F936F937F938F9392
S1131B009F93AF93BF93EF93FF93CF93DF931F9272
S1131B10CDB7DEB78BEF9BE0909385008093840074
S1131B204FD58EE391E0F0DE90919B0381E0890F25
S1131B3080939B03933019F491E090935001833088
S1131B4008F466C020913A0430913B0440913C046F
S1131B5050913D04A4E6B0E09BD52CE930E040E090
S1131B6050E05FD529832CE933E041E0BE016F5F8B
S1131B707F4F81E090E0A1DD809134040F2EF4E6E4
S1131B80FF2EF02DF89EC00111240F2EFCE9CF2E5C
S1131B90D12CF02DB60132D577277F936F9383E450
S1131BA092E09F938F930CE913E01F930F93CAD590
S1131BB0F80101900020E9F73197AF014C595340E7
S1131BC09801B80180E090E078DD80913E04F89EB1
S1131BD0C0011124B60112D577277F936F9381E555
S1131BE092E09F938F931F930F93ACD5F8010190CC
S1131BF00020E9F73197AF014C5953409801B801DF
S1131C0080E090E05ADD0FB6F894DEBF0FBECDBF82
S1131C100F90DF91CF91FF91EF91BF91AF919F9181
S1131C208F917F916F915F914F913F912F911F9170
S1131C300F91FF90DF90CF900F900FBE0F901F90E9
S1131C4018951F920F920FB60F9211242F933F9362
S1131C504F935F938F939F93AF93BF93EF93FF93B0
S1131C60EFE3F4E0918180819817B9F08181A38139
S1131C70B481A80FB11D3C912181422F50E0828193
S1131C8090E001974817590711F02F5F01C020E039
S1131C90209340043093C60005C0E1ECF0E080815D
S1131CA08F7D8083FF91EF91BF91AF919F918F9131
S1131CB05F914F913F912F910F900FBE0F901F9006
S1131CC018951F920F920FB60F9211242F934F93D2
S1131CD05F938F939F93AF93BF93EF93FF93809101
S1131CE0C600E5E3F4E09081A381B481A90FB11D9E
S1131CF08C932081422F50E0828190E00197481715
S1131D00590711F02F5F01C020E020933504FF91A3
S1131D10EF91BF91AF919F918F915F914F912F91CF
S1131D200F900FBE0F901F901895CF93DF93CDB7F0
S1131D30DEB760970FB6F894DEBF0FBECDBF1A8230
S1131D40198282E08B838C8381E08D8360E672E06C
S1131D50CE010196A3D860E772E086E491E033D91E
S1131D608BE0E5E6F1E0DE01169601900D928A958E
S1131D70E1F760E672E0CE010696AAD960960FB646
S1131D80F894DEBF0FBECDBFDF91CF910895AF921F
S1131D90BF92CF92DF92EF92FF920F931F93CF9354
S1131DA0DF93CDB7DEB7EB970FB6F894DEBF0FBE67
S1131DB0CDBF87E0E0E7F1E0DE01119601900D92DE
S1131DC08A95E1F760E872E0CE0101961EDA0F2EE3
S1131DD0F6E0AF2EF02D8E01035F1F4FD801EA2DE0
S1131DE01D92EA95E9F7EE24E394F12CF986E8864E
S1131DF082E08A878B87BB24B394BC8666E872E052
S1131E00CE0108964BD8FE01739689E2DF011D923C
S1131E108A95E9F70F2EF7E0CF2ED12CF02DDE8A2C
S1131E20CD8A86E391E0998F888F8AE090E09B8F3A
S1131E308A8F80E491E09D8F8C8F80EF90E09F8F5C
S1131E408E8FA8A29FEF99A39AA39BA3BAA680E022
S1131E5090E0A0E2B1E48FA798ABA9ABBAAB80E065
S1131E6090E0AFE7B3E48FAB98AFA9AFBAAF66E940
S1131E7072E0CF0157DAD88ACF86FA8AE98AC80194
S1131E8015DBEB960FB6F894DEBF0FBECDBFDF9126
S1131E90CF911F910F91FF90EF90DF90CF90BF9063
S1131EA0AF9008950F931F93CF93C091B200809188
S1131EB05001811163C080919A03C81720F00C2F40
S1131EC0081B802F02C08C1B809590913E048917BB
S1131ED010F480933E0490913404981710F4809386
S1131EE03404409196035091970360919803709144
S1131EF099038A019B01080F111D211D311DC90180
S1131F00B80100939603109397032093980330939A
S1131F1099030091920310919303209194033091BB
S1131F209503A90198012F5F3F4F4F4F5F4F2093B7
S1131F30920330939303409394035093950325366F
S1131F40310541055105C8F16CD320933A0430930F
S1131F503B0440933C0450933D041092960310922A
S1131F60970310929803109299031092920310927F
S1131F70930310929403109295031FC08FEF8093E4
S1131F803E041092340410923A0410923B041092CE
S1131F903C0410923D041092960310929703109201
S1131FA09803109299031092920310929303109243
S1131FB094031092950310925001C0939A03CF9109
S1131FC01F910F910895CF93DF93CDB7DEB7699733
S1131FD00FB6F894DEBF0FBECDBFE5DC62E080E053
S1131FE0FBDC60E480E0F8DC68E080E0F5DC60E2E3
S1131FF080E0F2DC0E94B704F8941092C50080E1FE
S11320008093C400E0ECF0E080818260808388E902
S11320108093C10086E08093C2001D8A1E8A80E4FA
S11320208F8B24EB33E0398F288F95E0FE01759672
S1132030DE01509601900D929A95E1F795E0FE012C
S11320407096DE011B9601900D929A95E1F795E04A
S1132050FE013B96AFE3B4E001900D929A95E1F74F
S11320601D8A1E8A8F8B84EF93E0998F888F85E079
S1132070FE017596DE01169601900D928A95E1F7A0
S113208085E0FE013696DE01119601900D928A9547
S1132090E1F785E0FE013196A5E3B4E001900D92ED
S11320A08A95E1F783E686BD14BC85E085BD81E0B1
S11320B080936E002BEF3BE03093850020938400E7
S11320C01092800094E09093810080936F001092AE
S11320D0B2001092B00087E08093B10078948EE350
S11320E091E004DC8DE09DE09093470480934604E6
S11320F0429A66E174E380E090E084DC42986BEA03
S113210071E184E090E07EDC429A66E174E380E071
S113211090E078DC42986BEA71E184E090E072DC54
S1132120429A66E174E380E090E06CDC4298699640
S11321300FB6F894DEBF0FBECDBFDF91CF910895E7
S1132140CF93C82F8A3011F48DE0FADFE091B20307
S1132150F091B303309741F0CF0101969093B3030C
S11321608093B203C08308C0E0914604F091470411
S1132170309711F08C2F0995CF910895CF93DF9369
S1132180EC018881882329F02196DADF8991811175
S1132190FCCFDF91CF9108952F923F924F925F929F
S11321A06F927F928F929F92AF92BF92CF92DF9263
S11321B0EF92FF920F931F93CF93DF93CDB7DEB7C8
S11321C06C970FB6F894DEBF0FBECDBF1C017A8F9B
S11321D0698F02C0BA8EA98ED1018C91882309F42B
S11321E0C4C1853229F0BFEF2B1A3B0AA9DFF4CF13
S11321F0F1014181403349F4428191012D5F3F4F08
S11322001901EE24E394F12C10C04D3231F032E088
S1132210230E311CE12CF12C08C04281F1013396CC
S11322201F016894EE24E1F8F12C80ED840F8A30CC
S1132230F0F400E010E0C801880F991F000F111F8F
S1132240000F111F000F111F080F191F040F111D7C
S113225047FD1A9500531109FFEF2F1A3F0AF101A8
S11322603197408180ED840F8A3028F302C000E06A
S113227010E0842F8F7D8C3439F46894E2F8D10116
S11322804C91F10131961F01442309F46EC141368A
S11322901CF020EE240F01C0242F822F022E000CEC
S11322A0990BAA0BBB0BFC01E254F109E731F105D0
S11322B008F04EC0EC5CFF4FD6C1A98CBA8CF2E09A
S11322C0AF0EB11CA98DBA8DCD90DC90F601808142
S11322D0882351F03196812C912C2FEF821A920A87
S11322E081918111FACF02C0812C912CE1FC13C0A1
S11322F0C40101968016910608F409C14C010BC073
S11323003FEFE31AF30AE016F10608F4FDC04801B2
S11323104FEF841A940AC60131DF8016910608F043
S113232059CF740180E20CDF5FEFE51AF50AE0167D
S1132330F106C0F3BA8EA98E4FCF098D1A8D0E5FA8
S11323401F4FA98DBA8D8C91FBDE1A8F098F44CF54
S1132350842FF6DE41CFE2FE19C00F2EFAE04F2E95
S1132360F02D512C04C06894442444F8512C698DF8
S11323707A8D6C5F7F4FE98DFA8D80819181A28186
S1132380B381243429F17A8F698F2FC00F2EFAE09C
S11323904F2EF02D512C243471F4A98DBA8D6D91EA
S11323A07C91CB01770FAA0BBB0BE98DFA8D32968A
S11323B0FA8FE98F0FC0A98DBA8D6D917C91CB01F5
S11323C0A0E0B0E0E98DFA8D3296FA8FE98F0DC066
S11323D07A8F698FBB234CF4B095A0959095819525
S11323E09F4FAF4FBF4F6894E4F8BC01CD0148370D
S11323F011F427E201C027E0AE014F5F5F4F4A01AD
S1132400A12CB12C612C712C1C8F0B8F122F01C0AD
S11324105601A301920105D1F62FE62F622F732FE7
S1132420842F952FFA3014F0E12FEF0F65015FEF41
S1132430C51AD50AE05DD401ED934D01611571050E
S11324408105910521F0B8E1CB16D10409F70B8D74
S11324501C8DE4FE0CC0E1E0F0E0EC0FFD1FEC0D80
S1132460FD1D2DE22083A5014E5F5F4F6A01E0FC54
S113247004C06894992495F804C00F2EF0E39F2EAD
S1132480F02DE1FC13C056015FEFA51AB50AC01682
S1132490D106B0F10CC08FEFE81AF80AE016F10685
S11324A060F158019FEFA91AB90A01C05601EE2440
S11324B0E394F12CEC0EFD1EEC0CFD1CA1E0CA1AF9
S11324C0D108F70182917F013BDEC114D104B1F739
S11324D0A016B10608F080CE750180E231DEFFEF70
S11324E0EF1AFF0AE016F106C0F376CEE2FC3BCF0A
S11324F06894442444F8512C5ECF892D21DECBCF3F
S1132500892D1EDE7601C7CF80E21ADEF9CE80E285
S113251017DE7401F5CEE98DFA8D80819181A28157
S1132520B3813496FA8FE98F6894442441F8512C8E
S11325305CCFE2FCF0CF6894442441F8512C2BCFBB
S1132540E98DFA8D80819181A281B3813496FA8FCD
S1132550E98F6894442443F8512C47CFE2FCF0CF30
S11325606894442443F8512C26CF6C960FB6F89403
S1132570DEBF0FBECDBFDF91CF911F910F91FF90B2
S1132580EF90DF90CF90BF90AF909F908F907F900F
S11325906F905F904F903F902F900895CF93DF936B
S11325A0CDB7DEB7BE016B5F7F4FFB018191919187
S11325B0BF01F2DDDF91CF9108950C945E0108957F
S11325C0089501DD80EA92E09F938F93E7DF0E94F4
S11325D0B00360E070E08FE191E00E944E0489EA6C
S11325E092E09F938F93DADF0F900F900F900F90EC
S11325F0C4E058DC0E94C003C9B9FBCF97FB072E87
S113260016F4009406D077FD08D04CD007FC05D012
S11326103EF4909581959F4F0895709561957F4FF5
S11326200895A1E21A2EAA1BBB1BFD010DC0AA1F0F
S1132630BB1FEE1FFF1FA217B307E407F50720F027
S1132640A21BB30BE40BF50B661F771F881F991FA2
S11326501A9469F760957095809590959B01AC01EB
S1132660BD01CF010895EE0FFF1F0590F491E02DF9
S11326700994A29FB001B39FC001A39F700D811D57
S11326801124911DB29F700D811D1124911D089577
S1132690F0DFA59F900DB49F900DA49F800D911D18
S11326A011240895AA1BBB1B51E107C0AA1FBB1F1D
S11326B0A617B70710F0A61BB70B881F991F5A95CA
S11326C0A9F780959095BC01CD0108950F931F93B0
S11326D0CF93DF93FB01238121FD03C08FEF9FEF95
S11326E02CC022FF16C046815781248135814217B0
S11326F0530744F4A081B1819D012F5F3F4F318383
S113270020838C93268137812F5F3F4F3783268325
S113271014C08B01EC01FB010084F185E02D0995C7
S1132720892BE1F6D80116968D919C911797019605
S113273017969C938E931697CE01DF91CF911F919C
S11327400F910895AEE0B0E0E7EAF3E16EC20D89BF
S11327501E8986E08C831A8309838FEF9FE79E830B
S11327608D83AE01475E5F4F6F89788DCE010196F0
S113277008D0EF81F885E00FF11F10822E96E4E077
S113278070C2ABE0B0E0E6ECF3E141C26C017B0166
S11327908A01FC0117821682838181FFBFC1CE01A9
S11327A001963C01F6019381F70193FD859193FF16
S11327B081917F01882309F4ADC1853239F493FDF9
S11327C0859193FF81917F01853221F4B60190E0D8
S11327D07DDFE8CF912C212C312CFFE1F315D8F0CB
S11327E08B3279F038F4803279F08332A1F4232DDE
S11327F020611DC08D3261F0803369F4232D216086
S113280016C0832D8260382EE32DE4603E2E2AC04C
S1132810F32DF8601DC037FC2DC020ED280F2A30A1
S113282040F08E32B9F436FC75C1232D2064322E6B
S113283019C036FE06C08AE0989E200D1124922EFF
S113284011C0EAE02E9E200D1124222EF32DF062F9
S11328503F2E08C08C3621F4832D8068382E02C0A8
S1132860883641F4F70193FD859193FF81917F01AF
S11328708111B3CF982F9F7D9554933028F40C5F2A
S11328801F4F9FE399830DC0833631F0833771F076
S1132890833509F055C020C0F801808189830E5F1B
S11328A01F4F88248394912C530112C02801F2E015
S11328B04F0E511CF801A080B18036FE03C0692D73
S11328C070E002C06FEF7FEFC50138D14C01820187
S11328D0F32DFF773F2E15C0280122E0420E511C34
S11328E0F801A080B18036FE03C0692D70E002C0FB
S11328F06FEF7FEFC50117D14C01F32DF0683F2E28
S1132900820133FC19C0822D90E088169906A0F448
S1132910B60180E290E0DADE2A94F5CFF50137FCC7
S1132920859137FE81915F01B60190E0CFDE2110E1
S11329302A9421E0821A91088114910479F7E1C064
S1132940843611F0893639F5F80137FE07C0608105
S11329507181828193810C5F1F4F08C060817181F6
S1132960072E000C880B990B0E5F1F4FF32DFF767B
S11329703F2E97FF09C090958095709561957F4F84
S11329808F4F9F4FF0683F2E2AE030E0A301E1D043
S1132990882E861844C0853731F4232D2F7EB22E1D
S11329A02AE030E025C0932D997FB92E8F36C1F0EF
S11329B018F4883579F0AEC0803719F0883721F0E3
S11329C0A9C0E92FE061BE2EB4FE0DC0FB2DF4605A
S11329D0BF2E09C034FE0AC0292F2660B22E06C0BD
S11329E028E030E005C020E130E002C020E132E020
S11329F0F801B7FE07C060817181828193810C5F09
S1132A001F4F06C06081718180E090E00E5F1F4F10
S1132A10A3019FD0882E8618FB2DFF773F2E36FE0C
S1132A200DC0232D2E7FA22E891458F434FE0BC022
S1132A3032FC09C0832D8E7EA82E05C0B82CA32C91
S1132A4003C0B82C01C0B92CA4FE0FC0FE01E80DD0
S1132A50F11D8081803321F49A2D997EA92E09C01D
S1132A60A2FE06C0B394B39404C08A2D867809F0FC
S1132A70B394A3FC10C0A0FE06C0B21480F4280CCA
S1132A80922C9B180DC0B21458F4B60180E290E069
S1132A901DDEB394F8CFB21418F42B1802C0982C8E
S1132AA0212CA4FE0FC0B60180E390E00FDEA2FE4D
S1132AB016C0A1FC03C088E790E002C088E590E05E
S1132AC0B6010CC08A2D867851F0A1FE02C08BE2BB
S1132AD001C080E2A7FC8DE2B60190E0F7DD891425
S1132AE030F4B60180E390E0F1DD9A94F8CF8A9453
S1132AF0F301E80DF11D8081B60190E0E7DD81105E
S1132B00F6CF222009F44ECEB60180E290E0DEDD5D
S1132B102A94F7CFF6018681978102C08FEF9FEF49
S1132B202B96E2E190C0FC010590615070400110C9
S1132B30D8F7809590958E0F9F1F0895FC016150E2
S1132B40704001900110D8F7809590958E0F9F1FCB
S1132B500895FA01AA27283051F1203181F1E8942F
S1132B606F936E7F6E5F7F4F8F4F9F4FAF4FB1E07C
S1132B703ED0B4E03CD0670F781F891F9A1FA11D77
S1132B80680F791F8A1F911DA11D6A0F711D811D78
S1132B90911DA11D20D009F468943F912AE0269F3D
S1132BA011243019305D3193DEF6CF010895462F9C
S1132BB04770405D4193B3E00FD0C9F7F6CF462F7D
S1132BC04F70405D4A3318F0495D31FD40524193E6
S1132BD002D0A9F7EACFB4E0A695979587957795A3
S1132BE06795BA95C9F700976105710508959B012A
S1132BF0AC010A2E06945795479537952795BA95B3
S1132C00C9F7620F731F841F951FA01D08952F928B
S1132C103F924F925F926F927F928F929F92AF9268
S1132C20BF92CF92DF92EF92FF920F931F93CF93B5
S1132C30DF93CDB7DEB7CA1BDB0B0FB6F894DEBF4C
S1132C400FBECDBF09942A88398848885F846E8472
S1132C507D848C849B84AA84B984C884DF80EE80BC
S1132C60FD800C811B81AA81B981CE0FD11D0FB6C5
S1132C70F894DEBF0FBECDBFED010895F894FFCFE9
S1132C800A000082016900000000000000B901AAE6
S1132C9000000000000000D501F700000000000063
S1132CA00011022701000000003301010115010B8E
S1132CB001000000001F02080200000000FF0038AD
S1132CC00F1209E1070000005032FFFFFFFF000070
S1132CD0015899ABC90FE2F7AA00030205000305E6
S1132CE0010406020400000000FFFF0000000000D1
S1132CF00000FFFFFF2C01414450205761697421FB
S1132D000A006164702070726F63657373004275AA
S1132D107A7A657220776F726B6564210A00427556
S1132D207A7A65722057616974210A0042757A7A49
S1132D30657220456E64210A0062757A7A65722094
S1132D4070726F63657373004C656420546F6767BA
S1132D506C65210A006C65642070726F636573731F
S1132D6000537461727420746865204F70657261D9
S1132D7074696F6E2053797374656D2E0A00437203
S1132D80656174696E6720546872656164732E0AA4
S1132D900073746172742070726F6365737300459D
S1132DA076656E742074696D6572001F1C1F1E1F8A
S1132DB01E1F1F1E1F1E1F1F1D1F1E1F1E1F1F1E27
S1132DC01F1E1F4370755F4D61783A252525640DDC
S1132DD0004370755F4D696E3A252525640D0D001D
S1132DE0537461747573206D6573736167657300E3
S1132DF0537461747573207465726D696E616C00CF
S1132E0047656E656C0043505520557361676520B6
S1132E1056616C75650043505520557361676500B4
S1132E20526573746172740A006C6F6F70210A00CA
S9030000FC
