S01400004156525F54656D706C6174652E737265638C
S113000033C000004EC000004CC000004AC00000D5
S113001048C0000046C0000044C0000042C00000C8
S113002040C000003EC000003CC000003AC00000D8
S113003038C000000C94BF0C34C0000032C0000073
S11300400C949A0C2EC000000C94B10D0C94710DFC
S113005028C0000026C0000024C0000022C0000008
S113006020C000001EC0000011241FBECFEFD8E046
S1130070DEBFCDBF12E0A0E0B1E0E0EAF7E202C0EB
S113008005900D92AE33B107D9F723E0AEE3B2E0A9
S113009001C01D92A63CB207E1F70E94F80F0C9430
S11300A0CE13AECFCF93DF93EC0188819981833156
S11300B09105B1F08A31910531F1892B79F548EE3A
S11300C053E060E070E08EE392E0B5D180E691E029
S11300D00E94021183E190E09983888381E025C026
S11300E0683801F58FE691E00E94021148EE53E072
S11300F060E070E08EE392E09ED18AE190E0998323
S1130100888381E012C0683879F48CE791E00E941A
S1130110021160E070E08AE091E0FED21982188258
S113012083E003C081E001C081E0DF91CF910895B5
S1130130CF93DF93EC0188819981009719F043975D
S113014091F017C04CED55E060E070E08AE492E075
S113015072D187E991E00E94021183E190E09983D2
S1130160888381E00BC0683841F48FE991E00E94F4
S113017002111982188283E001C081E0DF91CF91DE
S11301800895AF92BF92CF92DF92EF92FF920F93B6
S11301901F936894AA24A4F80F2EF7E2BF2EF02D23
S11301A0C12CD12CE12CF12C00E010E020E030E057
S11301B040E050E060E070E080E090E00E94561083
S11301C0622F732F842F952F1F910F91FF90EF9023
S11301D0DF90CF90BF90AF900895CF92DF92EF92CF
S11301E0FF920F931F9380915A0290915B02892B87
S11301F049F410925602109257021092580210922B
S1130200590244C0BEDF6B017C01E0915A02F091B7
S11302105B02408151816281738184819581A681D1
S1130220B781480F591F6A1F7B1F4C195D096E095E
S11302307F090084F185E02D3097E1F00081118180
S11302402281338184819581A681B781800F911F9A
S1130250A21FB31F8C199D09AE09BF098417950706
S1130260A607B70710F4AC01BD010084F185E02DA9
S1130270309721F74C0D5D1D6E1D7F1D4093560276
S11302805093570260935802709359021F910F9133
S1130290FF90EF90DF90CF90089584E191E060C2E9
S11302A00895CF92DF92EF92FF920F931F93CF9313
S11302B0DF938C01FC0180819181009719F0C19733
S11302C061F076C010925B0210925A0281E390E0D2
S11302D0F8019183808381E06FC0673899F5E091DC
S11302E05A02F0915B02309789F38285938548170F
S11302F0590719F50084F185E02D309729F41092FF
S11303005B0210925A02E2CF8285938548175907FF
S113031089F3F0935B02E0935A020FC01A968D9111
S11303209C911B974817590739F418968D919C9105
S113033019979187808701C0FD01A085B185109729
S113034069F7C4CF623811F6C12CD12CC0915A027E
S1130350D0915B02209709F4B9CFEC2CFD2C01C09D
S1130360EC01CE012CD2892BE9F0AE0168E88A8534
S11303709B85A3D1892BA9F41B861A86E114F10469
S113038031F088859985F7019187808706C0888533
S1130390998590935B0280935A02198618861DDF13
S11303A0D5CF7BDF888599857E010097C9F68ECFEE
S11303B0F8011182108283E0DF91CF911F910F9198
S11303C0FF90EF90DF90CF900895CF93DF93EC01EF
S11303D064DF8A859B85892BD1F0E0915A02F091E4
S11303E05B023097A1F0CE17DF0761F403C0CE178C
S11303F0DF0741F480910003909101039B878A8772
S1130400ECDE16C00084F185E02D309781F78091F1
S11304100003909101039B878A8780915A029091EF
S11304205B0299878887D0935B02C0935A02D5DE1A
S1130430DF91CF910895CF93DF93EC01B1D1CE0139
S1130440C4DFDF91CF910895CF92DF92EF92FF92B4
S11304500F931F93CF93DF93009100031091010337
S1130460E0900203F0900303E816F90671F0E1143A
S1130470F10409F45FC0F7010190F081E02D8E17BB
S11304809F0721F03097C1F755C0FC01EF2B09F409
S113049051C06B01EC018885882311F11886E114A1
S11304A0F10469F0CE15DF0521F0AE0167E8C7015C
S11304B04AD0F701E080F180E114F10499F7EC816E
S11304C0FD81309769F0CC15DD0551F0D09301031F
S11304D0C093000340E050E063E8CE01069609951E
S11304E0A0910203B0910303CA17DB07B1F488811A
S11304F09981909303038093020318C080819181B2
S1130500C817D90729F0FC013097C1F70FC0FD01C6
S1130510888199819183808309C0109739F0ED9186
S1130520FC911197CE17DF0779F7F1CF10930103F0
S113053000930003DF91CF911F910F91FF90EF90F3
S1130540DF90CF9008951F93CF93DF93DC0118962B
S11305502C91189720FF1FC01496ED91FC911597CC
S11305603097C9F0162FEC01909301038093000398
S113057082E08887CD0106960995082E000C990B18
S11305800297029710F0133821F4BE01CE015CDF0C
S113059002C081E08887DF91CF911F9108951F9356
S11305A0CF93DF9310925C02C0910203D0910303B6
S11305B0209781F011E08985882339F018871986FE
S11305C040E050E062E8CE01BEDF0990D881C02D42
S11305D0209789F7DF91CF911F9108958AE880933E
S11305E0FF021092FD021092FE0210920303109279
S11305F0020310920103109200030895FF920F93D7
S11306001F93CF93DF9380915C028111C8DF909197
S1130610FE02992309F444C02091FD0230E0F9015F
S1130620EE0FFF1FEE0FFF1FE20FF31FE35AFD4F04
S1130630F080C181D2810380F481E02D2F5F3F4F90
S11306402F713078332334F421503109206E3F6FF9
S11306502F5F3F4F2093FD0291509093FE023097FD
S1130660B1F4009102031091030301151105C1F0C7
S113067080915C02811193DFAE016F2DC80163DFAD
S1130680F801008111810115110591F709C081E874
S1130690F81202C081E08087AE016F2DCF0153DFD5
S11306A080915C022091FE0290E0820F911DDF9107
S11306B0CF911F910F91FF9008959C019091FE029C
S11306C09032C9F0E091FD02E90FEF71F0E0DF0133
S11306D0AA0FBB1FAA0FBB1FEA0FFB1FE35AFD4F54
S11306E0608352834183348323839F5F9093FE020C
S11306F080E090E0089581E090E00895CF93DF9347
S1130700C0910003D09101031EDFD0930103C09375
S11307100003DF91CF9108952091020330910303E8
S113072028173907E1F02115310549F0F901019045
S1130730F081E02D8E179F0791F03097C1F7009755
S113074071F0AB01FC013183208390930303809308
S1130750020321E020871782168261E8CFCF089533
S1130760FC01892B41F090859150923020F481E076
S1130770818780935C020895CF93DF938091320147
S113078090913301009749F0C4E3D1E060E070E058
S1130790C3DF899199910097C9F7DF91CF910895AB
S11307A0CF93DF93EC014C835D836E837F83E9DC1D
S11307B0688379838A839B83DF91CF910895CF9255
S11307C0DF92EF92FF92CF93DF93EC01DADCC880E3
S11307D0D980EA80FB80DC01CB018C199D09AE092C
S11307E0BF090196A11DB11D21E030E0CC80DD8060
S11307F0EE80FF80C816D906EA06FB0610F020E05A
S113080030E0C901DF91CF91FF90EF90DF90CF905E
S1130810089588B18B7F97B194602D98259A2AB159
S11308203BB1337F3BB92C602AB99C7F97B9836075
S113083088B908952F923F924F925F926F927F9260
S11308408F929F92AF92BF92CF92DF92EF92FF92DC
S11308500F931F93CF93DF93B82E6901442309F4B8
S1130860B9C050900803E0900603F09007039091FC
S1130870050390900403E0910903F0910A03209189
S11308800B03C0911E01DB01415050E04F5F5F4FED
S1130890640F751F612C312C412C212CD0E0A12C2C
S11308A010E031E0712C50E06894882482F8452DE2
S11308B08D91953009F090C08F3FB9F43BC08F3FC4
S11308C009F0A8C0C82FD32FA32E252F132F932FA1
S11308D03AC08F3FC1F1982E232E132F92E033C0DC
S11308E08F3F19F44F3F09F09AC0E82EF12C332EB4
S11308F0432E452F132F93E026C08F3F19F44F3F0B
S113090009F090C090E0982F8827E80EF91EE114B2
S1130910F10409F08AC0C92D332E432E452FD32F5D
S1130920A32E232F132F952F0EC08F3F19F494302D
S113093009F484C08F010F5F1F4F0E151F0509F4C2
S11309405DC0982D60C0309719F1832FBC12852F9C
S11309508223F1F0542E111190930503A1102093DA
S11309600B03D111C0931E01211090920403411076
S113097050920803332021F0F0920703E09206031B
S1130980662009F45EC0F0930A03E093090359C09A
S1130990A617B70709F08CCF542E111190930503B5
S11309A0A11020930B03D111C0931E01211090922A
S11309B00403411050920803332021F0F0920703FE
S11309C0E0920603662021F0F0930A03E093090302
S11309D080E037C080E035C0923009F481CF38F42C
S11309E0992309F46CCF913009F473CFACCF9330D1
S11309F009F483CF963008F498CFA5CFC92DD32F0F
S1130A00A32E232F952FEC0DFD1D8083F801632E5B
S1130A10132F99CFD32FCFEFA32E252F94CF482F69
S1130A20432E91CF482F432E8ECF632EE0E0F72D37
S1130A30332E432E452F132F982D85CF132F95E05A
S1130A4082CFDF91CF911F910F91FF90EF90DF90B4
S1130A50CF90BF90AF909F908F907F906F905F905A
S1130A604F903F902F900895CF92DF92EF92FF9294
S1130A700F931F93CF93DF93CDB7DEB7CE5FD1092A
S1130A800FB6F894DEBF0FBECDBFE82E6B01FE019A
S1130A9031968EEFDF011D928A95E9F710920B03D0
S1130AA06894FF24F2F8F40E0F2D10E00DC0B80185
S1130AB0CE01019676D5811107C096014F2DBE0156
S1130AC06F5F7F4F8E2DB6DE8091090390910A03EC
S1130AD0892B69F380910B03882349F3C250DF4FBC
S1130AE00FB6F894DEBF0FBECDBFDF91CF911F913B
S1130AF00F91FF90EF90DF90CF900895CF92DF9207
S1130B00FF920F931F93CF93DF93CDB7DEB7C451FA
S1130B10D3400FB6F894DEBF0FBECDBF6A0198E094
S1130B20EAE3F1E0DE01119601900D929A95E1F766
S1130B30AE01475F5F4F22E031E0DA01F9011D9217
S1130B403197E9F79FEFC55FDE4F9883CB50D140D3
S1130B50C45FDE4F1882CC50D1402AE030E0C35F3E
S1130B60DE4F39832883CD50D14098E0FE01319681
S1130B70ADE0B2E0AC0FBD1F129601900D929A95B4
S1130B80E1F7C35FDD4F8883CD50D240C25FDD4FB4
S1130B906883CE50D2408AE0FE01E35FFD4FABE0B4
S1130BA0B1E0AC0FBD1F149601900D928A95E1F748
S1130BB06EE070E0CE01855F9E4F3FD5FE01E95E99
S1130BC0FD4F8EEFDF011D928A95E9F710920B031A
S1130BD012E3F12C01E012C065E070E0CE01895E01
S1130BE09D4FDFD4811109C0960145E0BE01695EC5
S1130BF07D4F80E11FDE811112C0115080910903E5
S1130C0090910A03892B19F090910B0301C09F2D39
S1130C10802F111101C08F2D9817F0F280E0CC5E67
S1130C20DC4F0FB6F894DEBF0FBECDBFDF91CF917E
S1130C301F910F91FF90DF90CF9008950F931F9312
S1130C40CF93DF93EC0121153105C9F0FA01420F6E
S1130C50531F2FEF8F0190819F3F31F4CE01860FF8
S1130C60911DDC012C936F5FD8019C913196DE01BC
S1130C70A60FB11D9C936F5FE417F50759F7862FF4
S1130C8090E0DF91CF911F910F9108950F931F93DF
S1130C90CF93DF938C01EA0122E030E0CFDFAE0195
S1130CA04E5F5F4F22E030E0682FC801C7DFAE011E
S1130CB04C5F5F4F21E030E0682FC801BFDFAE0119
S1130CC04B5F5F4F22E030E0682FC801B7DFAE0111
S1130CD0495F5F4F22E030E0682FC801AFDFAE010B
S1130CE0475F5F4F22E030E0682FC801A7DFAE0105
S1130CF0455F5F4F22E030E0682FC8019FDFAE01FF
S1130D00435F5F4F21E030E0682FC80197DFDF9138
S1130D10CF911F910F910895CF93DF931F92CDB779
S1130D20DEB7AE014F5F5F4F60E081E0E7DE88230E
S1130D30C1F389810F90DF91CF9108958F929F9293
S1130D40AF92BF92CF92DF92EF92FF920F931F93D5
S1130D50CF93DF93CDB7DEB7C550D2400FB6F8942A
S1130D60DEBF0FBECDBF7C015B014E0122E0820ECF
S1130D70911C82E091E0F4019C01119221503040D9
S1130D80E1F7FB0101900020E9F731978F01061B81
S1130D90170B8FEFCC5FDE4F8883C450D14080E2C5
S1130DA0CB5FDE4F8883C550D140C8010696CA5F29
S1130DB0DE4F99838883C650D1406894CC24C2F80E
S1130DC0DD24D394CC0EDD1E34E0C30ED11C22E00E
S1130DD030E0A70160E0C60131DFA7014E5F5F4F3D
S1130DE021E030E0682FC60129DFA7014D5F5F4F86
S1130DF021E030E0682FC60121DFA7014C5F5F4F7F
S1130E0021E030E0682FC60119DF98012F5F3F4FC2
S1130E10A501682FC60112DFBC016C5F7F4FA401DE
S1130E20CE018C5F9E4F09D441E0BE016F5F7F4FBE
S1130E3080E31ADE81E09981913009F080E0CB5F94
S1130E40DD4F0FB6F894DEBF0FBECDBFDF91CF915B
S1130E501F910F91FF90EF90DF90CF90BF90AF90D4
S1130E609F908F9008958F929F92AF92BF92CF924E
S1130E70DF92EF92FF920F931F93CF93DF93CDB73F
S1130E80DEB7C550D2400FB6F894DEBF0FBECDBF5B
S1130E908C015B01FB0101900020E9F731974F01C0
S1130EA0861A970A6E0122E0C20ED11C82E091E0FC
S1130EB0F6019C01119221503040E1F78FEFCC5F95
S1130EC0DE4F8883C450D14086E2CB5FDE4F8883F7
S1130ED0C550D140C4010B96CA5FDE4F9983888305
S1130EE0C650D1406894EE24E2F8FF24F394EC0E4B
S1130EF0FD1E34E0E30EF11C22E030E0A80160E0C6
S1130F00C7019CDE94012F5F3F4FA501682FC701E5
S1130F1095DEA8014E5F5F4F29E030E0682FC701DE
S1130F208DDEBC016C5F7F4FA601CE018C5F9E4FAE
S1130F3084D341E0BE016F5F7F4F80E395DD81E0A4
S1130F409981913009F080E0CB5FDD4F0FB6F894C2
S1130F50DEBF0FBECDBFDF91CF911F910F91FF90E8
S1130F60EF90DF90CF90BF90AF909F908F900895B7
S1130F708F929F92AF92BF92CF92DF92EF92FF92A5
S1130F800F931F93CF93DF93CDB7DEB7C550D240F5
S1130F900FB6F894DEBF0FBECDBF8C015B016E01AE
S1130FA022E0C20ED11C82E091E0F6019C01119274
S1130FB021503040E1F7FB0101900020E9F731971F
S1130FC04F01861A970A8FEFCC5FDE4F8883C45097
S1130FD0D14087E2CB5FDE4F8883C550D140C40146
S1130FE00C96CA5FDE4F99838883C650D1406894BB
S1130FF0EE24E2F8FF24F394EC0EFD1E34E0E30E3D
S1131000F11C22E030E0A80160E0C70117DEA8016E
S11310104E5F5F4F22E030E0682FC7010FDEA8016A
S11310204C5F5F4F21E030E0682FC70107DEA80165
S11310304B5F5F4F23E030E0682FC701FFDD940171
S11310402F5F3F4FA501682FC701F8DDA801485F56
S11310505F4F23E030E0682FC701F0DDBC016C5F17
S11310607F4FA601CE018C5F9E4FE7D241E0BE01C7
S11310706F5F7F4F80E3F8DC81E09981913009F064
S113108080E0CB5FDD4F0FB6F894DEBF0FBECDBF5F
S1131090DF91CF911F910F91FF90EF90DF90CF9050
S11310A0BF90AF909F908F9008958F929F92AF9230
S11310B0BF92CF92DF92EF92FF920F931F93CF9341
S11310C0DF93CDB7DEB7C550D2400FB6F894DEBF7C
S11310D00FBECDBF8C015B01FB0101900020E9F73D
S11310E031974F01861A970A6E0122E0C20ED11C75
S11310F082E091E0F6019C01119221503040E1F729
S11311008FEFCC5FDE4F8883C450D1408AE2CB5F3F
S1131110DE4F8883C550D140C4010896CA5FDE4FB4
S113112099838883C650D1406894EE24E2F8FF2462
S1131130F394EC0EFD1E34E0E30EF11C22E030E0EB
S1131140A80160E0C7017ADD94012F5F3F4FA5013C
S1131150682FC70173DDA8014E5F5F4F23E030E0C5
S1131160682FC7016BDDA8014B5F5F4F22E030E0C1
S1131170682FC70163DDBC016C5F7F4FA601CE0100
S11311808C5F9E4F5AD241E0BE016F5F7F4F80E378
S11311906BDC81E09981913009F080E0CB5FDD4F19
S11311A00FB6F894DEBF0FBECDBFDF91CF911F9174
S11311B00F91FF90EF90DF90CF90BF90AF909F90F2
S11311C08F9008958F929F92AF92BF92CF92DF92A9
S11311D0EF92FF920F931F93CF93DF93CDB7DEB7B8
S11311E0C550D2400FB6F894DEBF0FBECDBF8C0100
S11311F05B01FB0101900020E9F731974F01861A4A
S1131200970A6E0122E0C20ED11C82E091E0F60141
S11312109C01119221503040E1F78FEFCC5FDE4FFB
S11312208883C450D1408BE2CB5FDE4F8883C550A6
S1131230D140C4018A96CA5FDE4F99838883C65021
S1131240D1406894EE24E2F8FF24F394EC0EFD1EE2
S113125034E0E30EF11CA80160E070E0C70116DD84
S1131260A801425F5F4F23E030E0682FC701E6DC4E
S1131270A8014F5E5F4F23E030E0682FC701DEDC3A
S1131280A8014C5E5F4F23E030E0682FC701D6DC35
S113129094012F5F3F4FA501682FC701CFDCA80140
S11312A0495E5F4F21E030E0682FC701C7DCA80129
S11312B0485E5F4F24E030E0682FC701BFDCA8011F
S11312C0445E5F4F24E030E0682FC701B7DCA8011B
S11312D0405E5F4F24E030E0682FC701AFDCA80117
S11312E04C5D5F4F24E030E0682FC701A7DCA80104
S11312F0485D5F4F21E030E0682FC7019FDCBC01EF
S11313006C5F7F4FA601CE018C5F9E4F96D141E06A
S1131310BE016F5F7F4F80E3A7DB81E0998191304D
S113132009F080E0CB5FDD4F0FB6F894DEBF0FBE4F
S1131330CDBFDF91CF911F910F91FF90EF90DF9080
S1131340CF90BF90AF909F908F900895CF92DF92EF
S1131350EF92FF920F931F93CF93DF93CDB7DEB736
S1131360C550D2400FB6F894DEBF0FBECDBF8C017E
S11313706E0122E0C20ED11C82E091E0F6019C01D4
S1131380119221503040E1F78FEFCC5FDE4F88831C
S1131390C450D1408CE2CB5FDE4F8883C550D1402E
S11313A086E090E0CA5FDE4F99838883C650D140BF
S11313B06894EE24E2F8FF24F394EC0EFD1E34E06E
S11313C0E30EF11C22E030E0A80160E0C70136DC46
S11313D0A8014E5F5F4F22E030E0682FC7012EDC8A
S11313E0A8014C5F5F4F22E030E0682FC70126DC84
S11313F0BC016C5F7F4FA601CE018C5F9E4F1DD157
S113140041E0BE016F5F7F4F80E32EDB81E0998175
S1131410913009F080E0CB5FDD4F0FB6F894DEBF6A
S11314200FBECDBFDF91CF911F910F91FF90EF9031
S1131430DF90CF900895AF92BF92DF92EF92FF9228
S11314400F931F93CF93DF93CDB7DEB7C450D24031
S11314500FB6F894DEBF0FBECDBF7C015B01FE0169
S1131460319682E091E0DF019C011D9221503040D1
S1131470E1F721E030E0A70160E0CE01895F9E4FF3
S1131480DDDBD7012C91222399F1D12C2D2D30E0D5
S11314908901000F111F000F111F020F131FA80154
S11314A04F5F5F4F4E0D5F1D22E030E0682FCE018D
S11314B0895F9E4FC3DBA8014D5F5F4F4E0D5F1DDB
S11314C021E030E0682FCE01895F9E4FB7DBF70142
S11314D0E00FF11F238130E044815581682FCE0154
S11314E0895F9E4FABDBD394F7012081D21670F253
S11314F02FEFCD5FDE4F2883C350D14020E4CC5F73
S1131500DE4F2883C450D140CB5FDE4F998388835C
S1131510C550D1408C010C5F1F4FAE014F5F5F4F30
S1131520B801CE018D5F9E4F88D09501402FBE013A
S11315306F5F7F4F84E17ED9CC5FDD4F0FB6F894A7
S1131540DEBF0FBECDBFDF91CF911F910F91FF90F2
S1131550EF90DF90BF90AF900895CF93DF93CDB716
S1131560DEB76B970FB6F894DEBF0FBECDBF51E068
S113157059839B838A834C837E836D83B901CE0117
S1131580019659DF8B8F9B8D81E0911101C080E022
S11315906B960FB6F894DEBF0FBECDBFDF91CF912F
S11315A008951F93CF93DF93EC01EDEAF3E091816B
S11315B08081981779F190818181981748F49091EE
S11315C0AE03E7EBF3E08081981B8281891B26C080
S11315D0EDEAF3E080819181891B20C08181A381A0
S11315E0B481A80FB11D8C919181A92FB0E0228103
S11315F030E021503109A217B30711F09F5F01C0F9
S1131600912F918389934F5F5F4F6417750730F76C
S113161080E00FC08DEF0DC086EF0BC090E0019706
S113162068177907C9F740E050E0EDEAF3E010E00D
S1131630D5CFDF91CF911F9108950F931F93CF932F
S1131640DF936115710549F0082F192FEB01F8019B
S113165081918F0132D12197D1F7DF91CF911F91E1
S11316600F910895AC0183709927892B61F59A0134
S11316703695279536952795ABE7B4E1FCD4969536
S1131680879564E6689F9001699F300D1124421785
S11316905307D9F49A01329522952F7023273F706E
S11316A02327AEE3BAE0E7D460E971E0869F9001B6
S11316B0879F300D969F300D112481E04217530708
S11316C029F080E0089580E0089581E00895CF93A3
S11316D0DF93CDB7DEB72C970FB6F894DEBF0FBEFD
S11316E0CDBF2CE0E2E4F1E0DE01119601900D9211
S11316F02A95E1F7633008F40197FE01E60FF11D26
S1131700208150E0420F511D480F591FFC01F695EE
S1131710E795F695E7954E0F5F1F9C01329522954C
S11317202F7023273F702327AEE3BAE0A4D4480FD9
S1131730591F9F01ABE7B4E19ED496958795481B4A
S1131740590B9A01A3E9B4E296D4281B390B3695B8
S11317502795820F931F96958795969587959C015B
S1131760220F331F220F331F220F331FB901681BAF
S1131770790BCB01742F781B872F2C960FB6F89416
S1131780DEBF0FBECDBFDF91CF910895CF93DF931E
S1131790EC014B814F5F6C816F5F8D819E8197DF80
S11317A08F83DF91CF910895EF92FF920F931F9350
S11317B0CF93DF93FC0190819F5F9C3311F0908362
S11317C03BC0EF01108281818F5F8C33A1F5828150
S11317D08F5F883171F5F380E48005811681F3947D
S11317E0C80199273FDF90E0FC01EE0FFF1FE80FCF
S11317F0F91FEE0FFF1FEE0FFF1FE054FE4FEE0D1B
S1131800F11D8081F81211C081E08E0D8C3059F4E5
S1131810093388E0180730F40F5F1F4F1E830D83D0
S113182080E001C080E08C83F12CFB82CE01AEDF2E
S113183080E08A8380E08983DF91CF911F910F91AB
S1131840FF90EF900895CF93DF931F92CDB7DEB74B
S11318508FEF809364008FB78983F89489815F93B5
S113186050E85093610050E0509361005F918FBF46
S11318700F90DF91CF910895CF93DF931F92CDB74F
S1131880DEB79FB79983F8949981811106C0E4E685
S1131890F0E060958081682360839FBF0F90DF91A3
S11318A0CF91089504C061507109810991096115AE
S11318B0710581059105B9F708956091B903462F23
S11318C050E041505109E7EBF3E020819181291761
S11318D030F491812081921B262F291B03C0208183
S11318E09181291B30E04217530779F3F894E7EB11
S11318F0F3E021819081291305C0E1ECF0E09081AF
S113190090629083E7EBF3E09081A381B481A90F07
S1131910B11D8C932081422F50E0828190E0019789
S11319204817590711F02F5F01C020E02093B70337
S1131930789408951F920F920FB60F9211242F934B
S11319403F934F935F936F937F938F939F93AF9343
S1131950BF93EF93FF9383E686BD46D3FF91EF9148
S1131960BF91AF919F918F917F916F915F914F91B3
S11319703F912F910F900FBE0F901F9018951F92BB
S11319800F920FB60F921124CF92DF92FF920F9312
S11319901F932F933F934F935F936F937F938F93F3
S11319A09F93AF93BF93EF93FF93CF93DF931F92D4
S11319B0CDB7DEB78BEF9BE09093850080938400D6
S11319C016D38FE191E0F0DE9091150381E0890F49
S11319D080931503933019F491E09093310183308F
S11319E008F466C02091B2033091B3034091B4036C
S11319F05091B503A4E6B0E04DD32CE930E040E0CB
S1131A0050E017D3298326E133E041E0BE016F5F44
S1131A107F4F81E090E0A1DD8091AC030F2EF4E6CE
S1131A20FF2EF02DF89EC00111240F2EFCE9CF2EBD
S1131A30D12CF02DB601EAD277277F936F9388EDEE
S1131A4091E09F938F9306E113E01F930F930AD4C1
S1131A50F80101900020E9F73197AF014651534056
S1131A609801B80180E090E078DD8091B603F89E9B
S1131A70C0011124B601CAD277277F936F9386EEF3
S1131A8091E09F938F931F930F93ECD3F8010190F0
S1131A900020E9F73197AF01465153409801B8014E
S1131AA080E090E05ADD0FB6F894DEBF0FBECDBFE4
S1131AB00F90DF91CF91FF91EF91BF91AF919F91E3
S1131AC08F917F916F915F914F913F912F911F91D2
S1131AD00F91FF90DF90CF900F900FBE0F901F904B
S1131AE018951F920F920FB60F9211242F933F93C4
S1131AF04F935F938F939F93AF93BF93EF93FF9312
S1131B00E7EBF3E0918180819817B9F08181A3819B
S1131B10B481A80FB11D3C912181422F50E08281F4
S1131B2090E001974817590711F02F5F01C020E09A
S1131B302093B8033093C60005C0E1ECF0E0808147
S1131B408F7D8083FF91EF91BF91AF919F918F9192
S1131B505F914F913F912F910F900FBE0F901F9067
S1131B6018951F920F920FB60F9211242F934F9333
S1131B705F938F939F93AF93BF93EF93FF93809162
S1131B80C600EDEAF3E09081A381B481A90FB11DF1
S1131B908C932081422F50E0828190E00197481776
S1131BA0590711F02F5F01C020E02093AD03FF918E
S1131BB0EF91BF91AF919F918F915F914F912F9131
S1131BC00F900FBE0F901F9018950F931F93CF93F4
S1131BD0C091B20080913101811163C080911403DE
S1131BE0C81720F00C2F081B802F02C08C1B809577
S1131BF09091B603891710F48093B6039091AC03C7
S1131C00981710F48093AC03409110035091110382
S1131C1060911203709113038A019B01080F111D37
S1131C20211D311DC901B801009310031093110344
S1131C30209312033093130300910C0310910D03AE
S1131C4020910E0330910F03A90198012F5F3F4F9C
S1131C504F4F5F4F20930C0330930D0340930E03BB
S1131C6050930F032536310541055105C8F1E1D1E3
S1131C702093B2033093B3034093B4035093B5035A
S1131C801092100310921103109212031092130376
S1131C9010920C0310920D0310920E0310920F0376
S1131CA01FC08FEF8093B6031092AC031092B2035F
S1131CB01092B3031092B4031092B5031092100360
S1131CC010921103109212031092130310920C033A
S1131CD010920D0310920E0310920F031092310113
S1131CE0C0931403CF911F910F9108957F928F9207
S1131CF09F92AF92BF92CF92DF92EF92FF920F9397
S1131D001F93CF93DF93CDB7DEB7CF54D1090FB66E
S1131D10F894DEBF0FBECDBF96DD62E080E0ACDD9F
S1131D2060E480E0A9DD68E080E0A6DD60E280E0B8
S1131D30A3DD0E940904F8941092C50080E1809309
S1131D40C400E0ECF0E080818260808388E98093C5
S1131D50C10086E08093C2001D8A1E8A80E48F8BB6
S1131D602CE233E0398F288F95E0FE017596DE0171
S1131D70509601900D929A95E1F795E0FE017096C8
S1131D80DE011B9601900D929A95E1F795E0FE0114
S1131D903B96A7EBB3E001900D929A95E1F71D8A6B
S1131DA01E8A8F8B8CE693E0998F888F85E0FE01E5
S1131DB07596DE01169601900D928A95E1F785E0FD
S1131DC0FE013696DE01119601900D928A95E1F797
S1131DD085E0FE013196ADEAB3E001900D928A955B
S1131DE0E1F783E686BD14BC85E085BD81E0809380
S1131DF06E002BEF3BE0309385002093840010921B
S1131E00800094E09093810080936F001092B20060
S1131E101092B00087E08093B10078948FE191E054
S1131E20B5DC8DE59CE09093BF038093BE03429A9A
S1131E3066E174E380E090E035DD42986BEA71E19D
S1131E4084E090E02FDD429A66E174E380E090E064
S1131E5029DD42986BEA71E184E090E023DD429A47
S1131E6066E174E380E090E01DDD42985B9A0E9495
S1131E708C068111FCCF5B985A9A6BE479E380E07D
S1131E8090E010DD87E0EEE4F1E0DE01DE96019003
S1131E900D928A95E1F765EF71E0CE01CE9605D9F2
S1131EA06E0185E4C80ED11C0F2EF6E07F2EF02DB6
S1131EB0F601872D11928A95E9F7AA24A394B12CEF
S1131EC02D96BFAEAEAE2D976894FF24F1F82E96F2
S1131ED0FFAE2E972F96FFAE2F97EE24E3946096D5
S1131EE0EFAE60976BEF71E0CE01855B9F4F0E9470
S1131EF09E068E010B5E1F4F89E2F80111928A95AE
S1131F00E9F70F2EF7E08F2E912CF02D988E8F8A03
S1131F1086E391E09B8F8A8F8AE090E09D8F8C8F7F
S1131F2080E491E09F8F8E8F80EF90E099A388A347
S1131F307AA28FEF8BA38CA38DA3ECA680E090E014
S1131F40A0E2B1E489AB9AABABABBCAB80E090E070
S1131F50AFE7B3E489AF9AAFABAFBCAF6BE072E06D
S1131F60C80130D9F60193828282B582A482C60167
S1131F70EDD91FAE1EAE2196FFAE21972296FFAE7D
S1131F8022972396EFAE239765E172E0CE01CE96B9
S1131F900E949E0665E272E087E291E00E943307A8
S1131FA08BE0E5E5F1E0D80101900D928A95E1F727
S1131FB065E172E0C8010E94B8075A985B98C15B5A
S1131FC0DF4F0FB6F894DEBF0FBECDBFDF91CF91C8
S1131FD01F910F91FF90EF90DF90CF90BF90AF9043
S1131FE09F908F907F9008950C944D0108950895CB
S1131FF07DDE85E392E006D10E94EE020E94BC03DE
S1132000C4E0E3DD0E94FE02C9B9FBCF97FB072EB3
S113201016F4009406D077FD08D0A4D007FC05D0B0
S11320203EF4909581959F4F0895709561957F4FEB
S11320300895A1E21A2EAA1BBB1BFD010DC0AA1F05
S1132040BB1FEE1FFF1FA217B307E407F50720F01D
S1132050A21BB30BE40BF50B661F771F881F991F98
S11320601A9469F760957095809590959B01AC01E1
S1132070BD01CF010895A29FB001B39FC001A39FEA
S1132080700D811D1124911DB29F700D811D1124AD
S1132090911D0895F0DFA59F900DB49F900DA49F0E
S11320A0800D911D11240895689401C0E8948F92C5
S11320B09F92CF93DF9305D0DF91CF919F908F9024
S11320C0089588249924F401E401B0E49F93AA2795
S11320D09A158B049C04ED05FE05CF05D007A107D6
S11320E098F4AD2FDC2FCF2FFE2FE92D982C892EBD
S11320F0982F872F762F652F542F432F322F222787
S1132100B85031F7BF9127C01B2EBF91BB27220FB8
S1132110331F441F551F661F771F881F991F881C74
S1132120991CEE1FFF1FCC1FDD1FAA1FBB1F8A14A3
S11321309B04EC05FD05CE05DF05A007B10748F0BB
S11321408A189B08EC09FD09CE09DF09A00BB10B25
S113215021601A94E1F62EF49401AF01BE01CD0181
S1132160000C0895AA1BBB1B51E107C0AA1FBB1F8B
S1132170A617B70710F0A61BB70B881F991F5A950F
S1132180A9F780959095BC01CD0108950F931F93F5
S1132190CF93DF93FB01238121FD03C08FEF9FEFDA
S11321A02CC022FF16C046815781248135814217F5
S11321B0530744F4A081B1819D012F5F3F4F3183C8
S11321C020838C93268137812F5F3F4F378326836B
S11321D014C08B01EC01FB010084F185E02D09950D
S11321E0892BE1F6D80116968D919C91179701964B
S11321F017969C938E931697CE01DF91CF911F91E2
S11322000F9108950F931F93CF93DF93E091C2032F
S1132210F091C303238121FF1BC08C01D0E0C0E0F7
S1132220F80181918F016091C2037091C303DB01B6
S11322301896ED91FC911997882331F00995892B13
S113224079F3DFEFCFEFECCF8AE00995892B19F012
S11322508FEF9FEF02C08D2F9C2FDF91CF911F91A5
S11322600F910895AEE0B0E0E7E3F1E16EC20D89AD
S11322701E8986E08C831A8309838FEF9FE79E83F0
S11322808D83AE01475E5F4F6F89788DCE010196D5
S113229008D0EF81F885E00FF11F10822E96E4E05C
S11322A070C2ABE0B0E0E6E5F1E141C26C017B0154
S11322B08A01FC0117821682838181FFBFC1CE018E
S11322C001963C01F6019381F70193FD859193FFFB
S11322D081917F01882309F4ADC1853239F493FDDE
S11322E0859193FF81917F01853221F4B60190E0BD
S11322F04DDFE8CF912C212C312CFFE1F315D8F0E0
S11323008B3279F038F4803279F08332A1F4232DC2
S113231020611DC08D3261F0803369F4232D21606A
S113232016C0832D8260382EE32DE4603E2E2AC031
S1132330F32DF8601DC037FC2DC020ED280F2A3086
S113234040F08E32B9F436FC75C1232D2064322E50
S113235019C036FE06C08AE0989E200D1124922EE4
S113236011C0EAE02E9E200D1124222EF32DF062DE
S11323703F2E08C08C3621F4832D8068382E02C08D
S1132380883641F4F70193FD859193FF81917F0194
S11323908111B3CF982F9F7D9554933028F40C5F0F
S11323A01F4F9FE399830DC0833631F0833771F05B
S11323B0833509F055C020C0F801808189830E5F00
S11323C01F4F88248394912C530112C02801F2E0FA
S11323D04F0E511CF801A080B18036FE03C0692D58
S11323E070E002C06FEF7FEFC50138D14C0182016C
S11323F0F32DFF773F2E15C0280122E0420E511C19
S1132400F801A080B18036FE03C0692D70E002C0DF
S11324106FEF7FEFC50117D14C01F32DF0683F2E0C
S1132420820133FC19C0822D90E088169906A0F42D
S1132430B60180E290E0AADE2A94F5CFF50137FCDC
S1132440859137FE81915F01B60190E09FDE2110F6
S11324502A9421E0821A91088114910479F7E1C049
S1132460843611F0893639F5F80137FE07C06081EA
S11324707181828193810C5F1F4F08C060817181DB
S1132480072E000C880B990B0E5F1F4FF32DFF7660
S11324903F2E97FF09C090958095709561957F4F69
S11324A08F4F9F4FF0683F2E2AE030E0A301E1D028
S11324B0882E861844C0853731F4232D2F7EB22E02
S11324C02AE030E025C0932D997FB92E8F36C1F0D4
S11324D018F4883579F0AEC0803719F0883721F0C8
S11324E0A9C0E92FE061BE2EB4FE0DC0FB2DF4603F
S11324F0BF2E09C034FE0AC0292F2660B22E06C0A2
S113250028E030E005C020E130E002C020E132E004
S1132510F801B7FE07C060817181828193810C5FED
S11325201F4F06C06081718180E090E00E5F1F4FF5
S1132530A3019FD0882E8618FB2DFF773F2E36FEF1
S11325400DC0232D2E7FA22E891458F434FE0BC007
S113255032FC09C0832D8E7EA82E05C0B82CA32C76
S113256003C0B82C01C0B92CA4FE0FC0FE01E80DB5
S1132570F11D8081803321F49A2D997EA92E09C002
S1132580A2FE06C0B394B39404C08A2D867809F0E1
S1132590B394A3FC10C0A0FE06C0B21480F4280CAF
S11325A0922C9B180DC0B21458F4B60180E290E04E
S11325B0EDDDB394F8CFB21418F42B1802C0982CA4
S11325C0212CA4FE0FC0B60180E390E0DFDDA2FE63
S11325D016C0A1FC03C088E790E002C088E590E043
S11325E0B6010CC08A2D867851F0A1FE02C08BE2A0
S11325F001C080E2A7FC8DE2B60190E0C7DD89143A
S113260030F4B60180E390E0C1DD9A94F8CF8A9467
S1132610F301E80DF11D8081B60190E0B7DD811072
S1132620F6CF222009F44ECEB60180E290E0AEDD72
S11326302A94F7CFF6018681978102C08FEF9FEF2E
S11326402B96E2E190C0FC010590615070400110AE
S1132650D8F7809590958E0F9F1F0895FC016150C7
S1132660704001900110D8F7809590958E0F9F1FB0
S11326700895FA01AA27283051F1203181F1E89414
S11326806F936E7F6E5F7F4F8F4F9F4FAF4FB1E061
S11326903ED0B4E03CD0670F781F891F9A1FA11D5C
S11326A0680F791F8A1F911DA11D6A0F711D811D5D
S11326B0911DA11D20D009F468943F912AE0269F22
S11326C011243019305D3193DEF6CF010895462F81
S11326D04770405D4193B3E00FD0C9F7F6CF462F62
S11326E04F70405D4A3318F0495D31FD40524193CB
S11326F002D0A9F7EACFB4E0A69597958795779588
S11327006795BA95C9F700976105710508959B010E
S1132710AC010A2E06945795479537952795BA9597
S1132720C9F7620F731F841F951FA01D08952F9270
S11327303F924F925F926F927F928F929F92AF924D
S1132740BF92CF92DF92EF92FF920F931F93CF939A
S1132750DF93CDB7DEB7CA1BDB0B0FB6F894DEBF31
S11327600FBECDBF09942A88398848885F846E8457
S11327707D848C849B84AA84B984C884DF80EE80A1
S1132780FD800C811B81AA81B981CE0FD11D0FB6AA
S1132790F894DEBF0FBECDBFED010895F894FFCFCE
S11327A0000088015200000000000000A801980009
S11327B0000000000000B401510100000000FF000F
S11327C0380F1209E1070000005032FFFFFFFF003D
S11327D0000114010A01000100005899ABC90FE27D
S11327E0F7AA000302050003050104060204000021
S11327F0FFFFFF2C0100000000FFFF0000000000AD
S113280042757A7A657220776F726B656421004233
S1132810757A7A65722057616974210042757A7AF3
S1132820657220456E64210062757A7A6572207043
S1132830726F63657373004C6564204F4E21004CC6
S11328406564204F464621006C65642070726F6396
S1132850657373004576656E742074696D657200E6
S11328601F1C1F1E1F1E1F1F1E1F1E1F1F1D1F1E7E
S11328701F1E1F1F1E1F1E1F4370755F4D61783A78
S1132880252525640D004370755F4D696E3A252535
S113289025640D0D0047656E656C00435055205549
S11328A0736167652056616C75650043505520550A
S11328B07361676500537461747573206D65737318
S11328C06167657300537461747573207465726D08
S11128D0696E616C005265737461727400006D
S9030000FC
