:100000004AC0000065C0000063C0000061C000007D
:100010005FC000005DC000005BC0000059C0000070
:1000200057C0000055C0000053C0000051C0000080
:100030004FC000000C94910D4BC0000049C000005F
:100040000C946C0D45C000000C947A0E0C943A0E82
:100050003FC000003DC000003BC0000039C00000B0
:1000600037C0000035C00000B212B611C411C11172
:10007000C111C111C111C111C111C111C111C111F0
:10008000C111C712C111C111C1117611C111C41121
:10009000C111C1118F1211241FBECFEFD8E0DEBFF6
:1000A000CDBF12E0A0E0B1E0E6EBFCE202C00590BB
:1000B0000D92AA3BB107D9F724E0AAEBB2E001C048
:1000C0001D92AD35B207E1F70E94FC120C9459164F
:1000D00097CFCF93DF93EC0188819981009719F036
:1000E0004497B9F034C081E891E09F938F930E94C8
:1000F000E7120F900F900FC04FE050E060E070E00B
:100100008AEB92E061D284E190E09983888381E078
:1001100023C0683801F5D0D6882341F080910001D2
:10012000815080930001882371F0E6CF8091000117
:10013000882349F00E94E00E0E94AE0E60E070E05D
:1001400085E191E0BDD31982188282E005C0198251
:10015000188283E001C081E0DF91CF910895CF93B1
:10016000DF93EC018881998183319105D1F08A3147
:10017000910571F1892BB1F544E650E060E070E043
:1001800086EC92E021D288E991E09F938F930E94C0
:10019000E71283E190E0998388830F900F9081E0CC
:1001A00028C0683819F588EA91E09F938F930E94E0
:1001B000E71244E650E060E070E086EC92E004D2A2
:1001C0008AE190E0998388830F900F9081E011C0BD
:1001D000683871F486EB91E09F938F930E94E71249
:1001E0000F900F901982188283E003C081E001C054
:1001F00081E0DF91CF910895CF93DF93EC01888167
:100200009981009719F0439781F014C00E94360E2F
:1002100044E650E060E070E082ED92E0D5D183E109
:1002200090E09983888381E00AC0683839F40E949D
:10023000BD0DEECF1982188283E001C081E0DF910D
:10024000CF910895CF93DF93FC0120813181211557
:10025000310521F02331310589F013C0EC0188E02C
:1002600089B944E650E060E070E08EED92E0ACD1F8
:1002700083E190E09983888381E009C0683831F494
:10028000EDCFFC011182108283E001C081E0DF919B
:10029000CF9108950F931F93CF93DF93FC0120819B
:1002A0003181232B29F58C018AEE91E09F938F9366
:1002B0000E94E71287E092E09F938F930E94E712DB
:1002C00080913301909134010F900F900F900F9017
:1002D000009749F0C5E3D1E060E070E0F1D2899188
:1002E00099910097C9F7F8011182108282E004C049
:1002F000FC011182108283E0DF91CF911F910F9159
:1003000008958091EA029091EB02A091EC02B091E5
:10031000ED020196A11DB11D8093EA029093EB02BC
:10032000A093EC02B093ED0258D1892B09F07EC066
:1003300008958091EE029091EF02A091F002B091A9
:10034000F1020196A11DB11D8093EE029093EF0280
:10035000A093F002B093F10208956091EA027091C7
:10036000EB028091EC029091ED020895CF92DF9222
:10037000EF92FF920F931F938091F6029091F702F4
:10038000892B49F41092F2021092F3021092F402B7
:100390001092F50244C0E1DF6B017C01E091F602AE
:1003A000F091F7024081518162817381848195814E
:1003B000A681B781480F591F6A1F7B1F4C195D0921
:1003C0006E097F090084F185E02D3097E1F000810E
:1003D00011812281338184819581A681B781800F2B
:1003E000911FA21FB31F8C199D09AE09BF09841765
:1003F0009507A607B70710F4AC01BD010084F1858D
:10040000E02D309721F74C0D5D1D6E1D7F1D409333
:10041000F2025093F3026093F4027093F5021F917D
:100420000F91FF90EF90DF90CF9008958DE391E0D2
:100430006BC20895CF92DF92EF92FF920F931F93BA
:10044000CF93DF938C01FC0180819181009719F09B
:10045000C19761F076C01092F7021092F60281E324
:1004600090E0F8019183808381E06FC0673899F54F
:10047000E091F602F091F702309789F38285938537
:100480004817590719F50084F185E02D309729F4B4
:100490001092F7021092F602E2CF828593854817F8
:1004A000590789F3F093F702E093F6020FC01A960A
:1004B0008D919C911B974817590739F418968D9187
:1004C0009C9119979187808701C0FD01A085B18516
:1004D000109769F7C4CF623811F6C12CD12CC091A6
:1004E000F602D091F702209709F4B9CFEC2CFD2C3D
:1004F00001C0EC01CE0123D2892BE9F0AE0168E8FE
:100500008A859B85AED1892BA9F41B861A86E114B6
:10051000F10431F088859985F7019187808706C0BD
:10052000888599859093F7028093F602198618863C
:100530001DDFD5CF7BDF888599857E010097C9F6C1
:100540008ECFF8011182108283E0DF91CF911F914D
:100550000F91FF90EF90DF90CF900895CF93DF93AE
:10056000EC0164DF8A859B85892BD1F0E091F6024E
:10057000F091F7023097A1F0CE17DF0761F403C0C6
:10058000CE17DF0741F480919C0390919D039B87D8
:100590008A87ECDE16C00084F185E02D309781F764
:1005A00080919C0390919D039B878A878091F6029E
:1005B0009091F70299878887D093F702C093F6024B
:1005C000D5DEDF91CF910895CF93DF93EC01A8D1D1
:1005D000CE01C4DFDF91CF91089581E090E02091BA
:1005E000F6023091F702232B11F480E090E0089599
:1005F000CF92DF92EF92FF920F931F93CF93DF93EF
:1006000000919C0310919D03E0909E03F0909F0346
:10061000E816F90671F0E114F10409F45FC0F7017E
:100620000190F081E02D8E179F0721F03097C1F7E0
:1006300055C0FC01EF2B09F451C06B01EC0188851A
:10064000882311F11886E114F10469F0CE15DF0555
:1006500021F0AE0167E8C7014AD0F701E080F180E0
:10066000E114F10499F7EC81FD81309769F0CC1524
:10067000DD0551F0D0939D03C0939C0340E050E012
:1006800063E8CE0106960995A0919E03B0919F0361
:10069000CA17DB07B1F48881998190939F038093F7
:1006A0009E0318C080819181C817D90729F0FC01E9
:1006B0003097C1F70FC0FD018881998191838083B4
:1006C00009C0109739F0ED91FC911197CE17DF0713
:1006D00079F7F1CF10939D0300939C03DF91CF91A5
:1006E0001F910F91FF90EF90DF90CF9008951F938F
:1006F000CF93DF93DC0118962C91189720FF1FC031
:100700001496ED91FC9115973097C9F0162FEC01D6
:1007100090939D0380939C0382E08887CD01069689
:100720000995082E000C990B0297029710F01338C8
:1007300021F4BE01CE015CDF02C081E08887DF9139
:10074000CF911F9108951F93CF93DF931092F802DA
:10075000C0919E03D0919F03209781F011E089857D
:10076000882339F01887198640E050E062E8CE010E
:10077000BEDF0990D881C02D209789F7DF91CF91F6
:100780001F9108958AE880939B0310929903109219
:100790009A0310929F0310929E0310929D03109251
:1007A0009C030895FF920F931F93CF93DF93809143
:1007B000F8028111C8DF90919A03992309F444C08B
:1007C0002091990330E0F901EE0FFF1FEE0FFF1F9C
:1007D000E20FF31FE750FD4FF080C181D28103800B
:1007E000F481E02D2F5F3F4F2F713078332334F4A5
:1007F00021503109206E3F6F2F5F3F4F20939903A7
:10080000915090939A033097B1F400919E03109108
:100810009F0301151105C1F08091F802811193DF4A
:10082000AE016F2DC80163DFF80100811181011550
:10083000110591F709C081E8F81202C081E08087B4
:10084000AE016F2DCF0153DF8091F80220919A0302
:1008500090E0820F911DDF91CF911F910F91FF903A
:1008600008959C0190919A039032C9F0E091990308
:10087000E90FEF71F0E0DF01AA0FBB1FAA0FBB1F4A
:10088000EA0FFB1FE750FD4F60835283418334839F
:1008900023839F5F90939A0380E090E0089581E026
:1008A00090E00895CF93DF93C0919C03D0919D0376
:1008B0001EDFD0939D03C0939C03DF91CF910895D9
:1008C00020919E0330919F0328173907E1F02115ED
:1008D000310549F0F9010190F081E02D8E179F0755
:1008E00091F03097C1F7009771F0AB01FC013183B3
:1008F000208390939F0380939E0321E0208717829B
:10090000168261E8CFCF0895FC01892B41F09085D4
:100910009150923020F481E081878093F80208950D
:10092000CF93DF93EC014C835D836E837F8315DD72
:10093000688379838A839B83DF91CF910895CF92D7
:10094000DF92EF92FF92CF93DF93EC0106DDC88038
:10095000D980EA80FB80DC01CB018C199D09AE09AE
:10096000BF090196A11DB11D21E030E0CC80DD80E2
:10097000EE80FF80C816D906EA06FB0610F020E0DC
:1009800030E0C901DF91CF91FF90EF90DF90CF90E1
:10099000089588B18B7F97B194602D98259A2AB1DC
:1009A0003BB1337F3BB92C602AB99C7F97B98360F8
:1009B00088B908952F923F924F925F926F927F92E3
:1009C0008F929F92AF92BF92CF92DF92EF92FF925F
:1009D0000F931F93CF93DF93B82E6901442309F43B
:1009E000B9C05090A403E090A203F090A3039091AB
:1009F000A1039090A003E091A503F091A60320919C
:100A0000A703C0914701DB01415050E04F5F5F4FAA
:100A1000640F751F612C312C412C212CD0E0A12CAE
:100A200010E031E0712C50E06894882482F8452D64
:100A30008D91953009F090C08F3FB9F43BC08F3F46
:100A400009F0A8C0C82FD32FA32E252F132F932F23
:100A50003AC08F3FC1F1982E232E132F92E033C05E
:100A60008F3F19F44F3F09F09AC0E82EF12C332E36
:100A7000432E452F132F93E026C08F3F19F44F3F8D
:100A800009F090C090E0982F8827E80EF91EE11435
:100A9000F10409F08AC0C92D332E432E452FD32FE0
:100AA000A32E232F132F952F0EC08F3F19F49430B0
:100AB00009F484C08F010F5F1F4F0E151F0509F445
:100AC0005DC0982D60C0309719F1832FBC12852F1F
:100AD0008223F1F0542E11119093A103A1102093C1
:100AE000A703D111C093470121109092A003411098
:100AF0005092A403332021F0F092A303E092A203CA
:100B0000662009F45EC0F093A603E093A50359C0E4
:100B1000A617B70709F08CCF542E11119093A1039B
:100B2000A1102093A703D111C093470121109092E7
:100B3000A00341105092A403332021F0F092A303AC
:100B4000E092A203662021F0F093A603E093A503B0
:100B500080E037C080E035C0923009F481CF38F4AE
:100B6000992309F46CCF913009F473CFACCF933053
:100B700009F483CF963008F498CFA5CFC92DD32F91
:100B8000A32E232F952FEC0DFD1D8083F801632EDE
:100B9000132F99CFD32FCFEFA32E252F94CF482FEC
:100BA000432E91CF482F432E8ECF632EE0E0F72DBA
:100BB000332E432E452F132F982D85CF132F95E0DD
:100BC00082CFDF91CF911F910F91FF90EF90DF9037
:100BD000CF90BF90AF909F908F907F906F905F90DD
:100BE0004F903F902F9008959F92AF92BF92CF92D7
:100BF000DF92EF92FF920F931F93CF93DF93CDB7C6
:100C0000DEB7CE5FD1090FB6F894DEBF0FBECDBF01
:100C1000982E6B01FE0131968EEFDF011D928A95B1
:100C2000E9F71092A7036894AA24A2F8A40E12E38D
:100C3000B12C01E0EA2CF12C0EC0B701CE010196D7
:100C400082D5811107C096014A2DBE016F5F7F4F8B
:100C5000892DB0DE11508091A5039091A603892BB8
:100C600019F09091A70301C09B2D802F111101C095
:100C70008B2D981710F3C250DF4F0FB6F894DEBFDC
:100C80000FBECDBFDF91CF911F910F91FF90EF90DD
:100C9000DF90CF90BF90AF909F900895CF92DF925A
:100CA000FF920F931F93CF93DF93CDB7DEB7C4515D
:100CB000D3400FB6F894DEBF0FBECDBF6A0198E0F7
:100CC000EBE5F1E0DE01119601900D929A95E1F7C6
:100CD000AE01475F5F4F22E031E0DA01F9011D927A
:100CE0003197E9F79FEFC55FDE4F9883CB50D14036
:100CF000C45FDE4F1882CC50D1402AE030E0C35FA1
:100D0000DE4F39832883CD50D14098E0FE013196E3
:100D1000ADE0B2E0AC0FBD1F129601900D929A9516
:100D2000E1F7C35FDD4F8883CD50D240C25FDD4F16
:100D30006883CE50D2408AE0FE01E35FFD4FABE016
:100D4000B1E0AC0FBD1F149601900D928A95E1F7AA
:100D50006EE070E0CE01855F9E4F41D5FE01E95EF9
:100D6000FD4F8EEFDF011D928A95E9F71092A703E0
:100D700012E3F12C01E012C065E070E0CE01895E63
:100D80009D4FE1D4811109C0960145E0BE01695E25
:100D90007D4F80E10FDE811112C011508091A503BB
:100DA0009091A603892B19F09091A70301C09F2D64
:100DB000802F111101C08F2D9817F0F280E0CC5ECA
:100DC000DC4F0FB6F894DEBF0FBECDBFDF91CF91E1
:100DD0001F910F91FF90DF90CF9008950F931F9375
:100DE000CF93DF93EC0121153105C9F0FA01420FD1
:100DF000531F2FEF8F0190819F3F31F4CE01860F5B
:100E0000911DDC012C936F5FD8019C913196DE011E
:100E1000A60FB11D9C936F5FE417F50759F7862F56
:100E200090E0DF91CF911F910F9108950F931F9341
:100E3000CF93DF938C01EA0122E030E0CFDFAE01F7
:100E40004E5F5F4F22E030E0682FC801C7DFAE0180
:100E50004C5F5F4F21E030E0682FC801BFDFAE017B
:100E60004B5F5F4F22E030E0682FC801B7DFAE0173
:100E7000495F5F4F22E030E0682FC801AFDFAE016D
:100E8000475F5F4F22E030E0682FC801A7DFAE0167
:100E9000455F5F4F22E030E0682FC8019FDFAE0161
:100EA000435F5F4F21E030E0682FC80197DFDF919B
:100EB000CF911F910F910895CF93DF931F92CDB7DC
:100EC000DEB7AE014F5F5F4F60E081E0E7DE81118A
:100ED00002C082E0898389810F90DF91CF910895CC
:100EE0008F929F92AF92BF92CF92DF92EF92FF923A
:100EF0000F931F93CF93DF93CDB7DEB7C550D2408A
:100F00000FB6F894DEBF0FBECDBF7C015B014E0172
:100F100022E0820E911C82E091E0F4019C0111928A
:100F200021503040E1F7FB0101900020E9F73197B3
:100F30008F01061B170B8FEFCC5FDE4F8883C450E9
:100F4000D14080E2CB5FDE4F8883C550D140C801DD
:100F50000696CA5FDE4F99838883C650D140689455
:100F6000CC24C2F8DD24D394CC0EDD1E34E0C30EB5
:100F7000D11C22E030E0A70160E0C6012FDFA7010D
:100F80004E5F5F4F21E030E0682FC60127DFA701E9
:100F90004D5F5F4F21E030E0682FC6011FDFA701E2
:100FA0004C5F5F4F21E030E0682FC60117DF9801EA
:100FB0002F5F3F4FA501682FC60110DFBC016C5F9A
:100FC0007F4FA401CE018C5F9E4F09D441E0BE014A
:100FD0006F5F7F4F80E308DE81E09981913009F0F7
:100FE00080E0CB5FDD4F0FB6F894DEBF0FBECDBF04
:100FF000DF91CF911F910F91FF90EF90DF90CF90F5
:10100000BF90AF909F908F9008958F929F92AF92D4
:10101000BF92CF92DF92EF92FF920F931F93CF93E5
:10102000DF93CDB7DEB7C550D2400FB6F894DEBF20
:101030000FBECDBF8C015B01FB0101900020E9F7E1
:1010400031974F01861A970A6E0122E0C20ED11C19
:1010500082E091E0F6019C01119221503040E1F7CD
:101060008FEFCC5FDE4F8883C450D14086E2CB5FE8
:10107000DE4F8883C550D140C4010B96CA5FDE4F56
:1010800099838883C650D1406894EE24E2F8FF2407
:10109000F394EC0EFD1E34E0E30EF11C22E030E090
:1010A000A80160E0C7019ADE94012F5F3F4FA501C0
:1010B000682FC70193DEA8014E5F5F4F29E030E043
:1010C000682FC7018BDEBC016C5F7F4FA601CE018C
:1010D0008C5F9E4F84D341E0BE016F5F7F4F80E302
:1010E00083DD81E09981913009F080E0CB5FDD4FB5
:1010F0000FB6F894DEBF0FBECDBFDF91CF911F9129
:101100000F91FF90EF90DF90CF90BF90AF909F90A6
:101110008F9008958F929F92AF92BF92CF92DF925D
:10112000EF92FF920F931F93CF93DF93CDB7DEB76C
:10113000C550D2400FB6F894DEBF0FBECDBF8C01B4
:101140005B016E0122E0C20ED11C82E091E0F6014B
:101150009C01119221503040E1F7FB0101900020E9
:10116000E9F731974F01861A970A8FEFCC5FDE4F70
:101170008883C450D14087E2CB5FDE4F8883C5505F
:10118000D140C4010C96CA5FDE4F99838883C65054
:10119000D1406894EE24E2F8FF24F394EC0EFD1E97
:1011A00034E0E30EF11C22E030E0A80160E0C7016A
:1011B00015DEA8014E5F5F4F22E030E0682FC701C7
:1011C0000DDEA8014C5F5F4F21E030E0682FC701C2
:1011D00005DEA8014B5F5F4F23E030E0682FC701B9
:1011E000FDDD94012F5F3F4FA501682FC701F6DD9C
:1011F000A801485F5F4F23E030E0682FC701EEDDB4
:10120000BC016C5F7F4FA601CE018C5F9E4FE7D281
:1012100041E0BE016F5F7F4F80E3E6DC81E09981B2
:10122000913009F080E0CB5FDD4F0FB6F894DEBF60
:101230000FBECDBFDF91CF911F910F91FF90EF9027
:10124000DF90CF90BF90AF909F908F9008958F9236
:101250009F92AF92BF92CF92DF92EF92FF920F9345
:101260001F93CF93DF93CDB7DEB7C550D2400FB6F3
:10127000F894DEBF0FBECDBF8C015B01FB01019076
:101280000020E9F731974F01861A970A6E0122E094
:10129000C20ED11C82E091E0F6019C011192215016
:1012A0003040E1F78FEFCC5FDE4F8883C450D140F0
:1012B0008AE2CB5FDE4F8883C550D140C4010896D7
:1012C000CA5FDE4F99838883C650D1406894EE246C
:1012D000E2F8FF24F394EC0EFD1E34E0E30EF11C63
:1012E00022E030E0A80160E0C70178DD94012F5FC3
:1012F0003F4FA501682FC70171DDA8014E5F5F4F09
:1013000023E030E0682FC70169DDA8014B5F5F4F24
:1013100022E030E0682FC70161DDBC016C5F7F4FC8
:10132000A601CE018C5F9E4F5AD241E0BE016F5F95
:101330007F4F80E359DC81E09981913009F080E0B2
:10134000CB5FDD4F0FB6F894DEBF0FBECDBFDF9190
:10135000CF911F910F91FF90EF90DF90CF90BF90B2
:10136000AF909F908F9008958F929F92AF92BF926F
:10137000CF92DF92EF92FF920F931F93CF93DF9361
:10138000CDB7DEB7C550D2400FB6F894DEBF0FBE62
:10139000CDBF8C015B01FB0101900020E9F7319783
:1013A0004F01861A970A6E0122E0C20ED11C82E01C
:1013B00091E0F6019C01119221503040E1F78FEF4E
:1013C000CC5FDE4F8883C450D1408BE2CB5FDE4FD1
:1013D0008883C550D140C4018A96CA5FDE4F998385
:1013E0008883C650D1406894EE24E2F8FF24F39439
:1013F000EC0EFD1E34E0E30EF11CA80160E070E08D
:10140000C70114DDA801425F5F4F23E030E0682F81
:10141000C701E4DCA8014F5E5F4F23E030E0682F96
:10142000C701DCDCA8014C5E5F4F23E030E0682F91
:10143000C701D4DC94012F5F3F4FA501682FC7017E
:10144000CDDCA801495E5F4F21E030E0682FC70185
:10145000C5DCA801485E5F4F24E030E0682FC7017B
:10146000BDDCA801445E5F4F24E030E0682FC70177
:10147000B5DCA801405E5F4F24E030E0682FC70173
:10148000ADDCA8014C5D5F4F24E030E0682FC70160
:10149000A5DCA801485D5F4F21E030E0682FC7015F
:1014A0009DDCBC016C5F7F4FA601CE018C5F9E4F1F
:1014B00096D141E0BE016F5F7F4F80E395DB81E015
:1014C0009981913009F080E0CB5FDD4F0FB6F89441
:1014D000DEBF0FBECDBFDF91CF911F910F91FF9067
:1014E000EF90DF90CF90BF90AF909F908F90089536
:1014F000CF92DF92EF92FF920F931F93CF93DF93E0
:10150000CDB7DEB7C550D2400FB6F894DEBF0FBEE0
:10151000CDBF8C016E0122E0C20ED11C82E091E0B1
:10152000F6019C01119221503040E1F78FEFCC5F22
:10153000DE4F8883C450D1408CE2CB5FDE4F88837E
:10154000C550D14086E090E0CA5FDE4F9983888322
:10155000C650D1406894EE24E2F8FF24F394EC0ED8
:10156000FD1E34E0E30EF11C22E030E0A80160E053
:10157000C70134DCA8014E5F5F4F22E030E0682FE6
:10158000C7012CDCA8014C5F5F4F22E030E0682FE0
:10159000C70124DCBC016C5F7F4FA601CE018C5FCC
:1015A0009E4F1DD141E0BE016F5F7F4F80E31CDB8A
:1015B00081E09981913009F080E0CB5FDD4F0FB67B
:1015C000F894DEBF0FBECDBFDF91CF911F910F9179
:1015D000FF90EF90DF90CF900895AF92BF92DF928F
:1015E000EF92FF920F931F93CF93DF93CDB7DEB7A8
:1015F000C450D2400FB6F894DEBF0FBECDBF7C0101
:101600005B01FE01319682E091E0DF019C011D92B9
:1016100021503040E1F721E030E0A70160E0CE0149
:10162000895F9E4FDBDBD7012C91222399F1D12CCE
:101630002D2D30E08901000F111F000F111F020F27
:10164000131FA8014F5F5F4F4E0D5F1D22E030E07A
:10165000682FCE01895F9E4FC1DBA8014D5F5F4FB0
:101660004E0D5F1D21E030E0682FCE01895F9E4F57
:10167000B5DBF701E00FF11F238130E04481558194
:10168000682FCE01895F9E4FA9DBD394F70120819B
:10169000D21670F22FEFCD5FDE4F2883C350D140BA
:1016A00020E4CC5FDE4F2883C450D140CB5FDE4FB7
:1016B00099838883C550D1408C010C5F1F4FAE01C8
:1016C0004F5F5F4FB801CE018D5F9E4F88D095016F
:1016D000402FBE016F5F7F4F84E16CD9CC5FDD4F3F
:1016E0000FB6F894DEBF0FBECDBFDF91CF911F9133
:1016F0000F91FF90EF90DF90BF90AF900895CF9340
:10170000DF93CDB7DEB76B970FB6F894DEBF0FBE91
:10171000CDBF51E059839B838A834C837E836D8345
:10172000B901CE01019659DF8B8F9B8D81E091111C
:1017300001C080E06B960FB6F894DEBF0FBECDBF40
:10174000DF91CF9108951F93CF93DF93EC01EAE4EB
:10175000F4E091818081981779F1908181819817C7
:1017600048F490914B04E4E5F4E08081981B828179
:10177000891B26C0EAE4F4E080819181891B20C0A6
:101780008181A381B481A80FB11D8C919181A92F72
:10179000B0E0228130E021503109A217B30711F0E7
:1017A0009F5F01C0912F918389934F5F5F4F6417B3
:1017B000750730F780E00FC08DEF0DC086EF0BC0CE
:1017C00090E0019768177907C9F740E050E0EAE434
:1017D000F4E010E0D5CFDF91CF911F9108950F93E2
:1017E0001F93CF93DF936115710549F0082F192FCF
:1017F000EB01F80181918F0132D12197D1F7DF916F
:10180000CF911F910F910895AC0183709927892B77
:1018100061F59A013695279536952795ABE7B4E1A2
:1018200043D79695879564E6689F9001699F300D30
:10183000112442175307D9F49A01329522952F703B
:1018400023273F702327AEE3BAE02ED760E971E08B
:10185000869F9001879F300D969F300D112481E067
:101860004217530729F080E0089580E0089581E051
:101870000895CF93DF93CDB7DEB72C970FB6F894CA
:10188000DEBF0FBECDBF2CE0E3E6F1E0DE01119636
:1018900001900D922A95E1F7633008F40197FE015B
:1018A000E60FF11D208150E0420F511D480F591FD6
:1018B000FC01F695E795F695E7954E0F5F1F9C01A5
:1018C000329522952F7023273F702327AEE3BAE08D
:1018D000EBD6480F591F9F01ABE7B4E1E5D69695CB
:1018E0008795481B590B9A01A3E9B4E2DDD6281B62
:1018F000390B36952795820F931F96958795969568
:1019000087959C01220F331F220F331F220F331F95
:10191000B901681B790BCB01742F781B872F2C968C
:101920000FB6F894DEBF0FBECDBFDF91CF91089503
:10193000CF93DF93EC014B814F5F6C816F5F8D81A3
:101940009E8197DF8F83DF91CF910895EF92FF9271
:101950000F931F93CF93DF93FC0190819F5F9C3384
:1019600011F090833BC0EF01108281818F5F8C3337
:10197000A1F582818F5F883171F5F380E480058164
:101980001681F394C80199273FDF90E0FC01EE0F28
:10199000FF1FE80FF91FEE0FFF1FEE0FFF1FEC5C9C
:1019A000FD4FEE0DF11D8081F81211C081E08E0D0A
:1019B0008C3059F4093388E0180730F40F5F1F4F5B
:1019C0001E830D8380E001C080E08C83F12CFB82BC
:1019D000CE01AEDF80E08A8380E08983DF91CF9102
:1019E0001F910F91FF90EF900895CF93DF931F9277
:1019F000CDB7DEB78FEF809364008FB78983F894FB
:101A000089815F9350E85093610050E050936100EA
:101A10005F918FBF0F90DF91CF910895CF93DF93A8
:101A20001F92CDB7DEB79FB79983F8949981811142
:101A300006C0E4E6F0E060958081682360839FBF84
:101A40000F90DF91CF91089504C061507109810911
:101A500091096115710581059105B9F708956091A6
:101A60005604462F50E041505109E4E5F4E020814E
:101A70009181291730F491812081921B262F291BF7
:101A800003C020819181291B30E04217530779F36D
:101A9000F894E4E5F4E021819081291305C0E1EC9C
:101AA000F0E0908190629083E4E5F4E09081A3817E
:101AB000B481A90FB11D8C932081422F50E0828107
:101AC00090E001974817590711F02F5F01C020E0FF
:101AD00020935404789408951F920F920FB60F929A
:101AE00011242F933F934F935F936F937F938F9323
:101AF0009F93AF93BF93EF93FF9383E686BD76D515
:101B0000FF91EF91BF91AF919F918F917F916F91D5
:101B10005F914F913F912F910F900FBE0F901F90AB
:101B200018951F920F920FB60F9211242F933F9387
:101B30004F935F936F937F938F939F93AF93BF93D5
:101B4000EF93FF938BEF9BE090938500809384004D
:101B500050D588E491E0FADEFF91EF91BF91AF910B
:101B60009F918F917F916F915F914F913F912F91B5
:101B70000F900FBE0F901F901895CF92DF92FF929B
:101B80000F931F93CF93DF931F92CDB7DEB72091B2
:101B90004F04309150044091510450915204A4E6F6
:101BA000B0E091D52CE930E040E050E055D52983F4
:101BB00021EB33E041E0BE016F5F7F4F81E090E0B9
:101BC0009EDD809149040F2EF4E6FF2EF02DF89E45
:101BD000C00111240F2EFCE9CF2ED12CF02DB6011F
:101BE00028D577277F936F938CE492E09F938F9310
:101BF00001EB13E01F930F93C0D5F8010190002073
:101C0000E9F73197AF01415B53409801B80180E09B
:101C100090E075DD80915304F89EC0011124B60157
:101C200008D577277F936F938AE592E09F938F93F0
:101C30001F930F93A2D5F80101900020E9F7319787
:101C4000AF01415B53409801B80180E090E057DD5F
:101C50000FB6F894DEBF0FBECDBF0F90DF91CF91CE
:101C60001F910F91FF90DF90CF90089581E08093B6
:101C70005A0108951F920F920FB60F9211242F93BD
:101C80003F934F935F938F939F93AF93BF93EF9344
:101C9000FF93E4E5F4E0918180819817B9F08181A8
:101CA000A381B481A80FB11D3C912181422F50E046
:101CB000828190E001974817590711F02F5F01C00A
:101CC00020E0209355043093C60005C0E1ECF0E01D
:101CD00080818F7D8083FF91EF91BF91AF919F9124
:101CE0008F915F914F913F912F910F900FBE0F9069
:101CF0001F9018951F920F920FB60F9211242F93D9
:101D00004F935F938F939F93AF93BF93EF93FF9303
:101D10008091C600EAE4F4E09081A381B481A90F28
:101D2000B11D8C932081422F50E0828190E0019779
:101D30004817590711F02F5F01C020E020934A0493
:101D4000FF91EF91BF91AF919F918F915F914F91D3
:101D50002F910F900FBE0F901F901895CF93DF9388
:101D6000CDB7DEB760970FB6F894DEBF0FBECDBF1C
:101D70001A82198282E08B838C8381E08D8369E6ED
:101D800072E0CE010196ACD869E772E080E591E09F
:101D90003CD98BE0EFE6F1E0DE01169601900D9262
:101DA0008A95E1F769E672E0CE010696B3D96096AE
:101DB0000FB6F894DEBF0FBECDBFDF91CF9108956F
:101DC000AF92BF92CF92DF92EF92FF920F931F9349
:101DD000CF93DF93CDB7DEB7EB970FB6F894DEBFA6
:101DE0000FBECDBF87E0EAE7F1E0DE01119601907A
:101DF0000D928A95E1F769E872E0CE01019627DA43
:101E00000F2EF6E0AF2EF02D8E01035F1F4FD8018D
:101E1000EA2D1D92EA95E9F7EE24E394F12CF98678
:101E2000E88682E08A878B87BB24B394BC866FE800
:101E300072E0CE01089654D8FE01739689E2DF0164
:101E40001D928A95E9F70F2EF7E0CF2ED12CF02DB9
:101E5000DE8ACD8A86E391E0998F888F8AE090E0D0
:101E60009B8F8A8F80E491E09D8F8C8F80EF90E034
:101E70009F8F8E8FA8A29FEF99A39AA39BA3BAA628
:101E800080E090E0A0E2B1E48FA798ABA9ABBAAB39
:101E900080E090E0AFE7B3E48FAB98AFA9AFBAAF03
:101EA0006FE972E0CF0160DAD88ACF86FA8AE98AD0
:101EB000C8011EDBEB960FB6F894DEBF0FBECDBF98
:101EC000DF91CF911F910F91FF90EF90DF90CF9016
:101ED000BF90AF9008950F931F93CF93C091B2001E
:101EE00080915A01811163C08091B003C81720F01E
:101EF0000C2F081B802F02C08C1B809590915304DF
:101F0000891710F48093530490914904981710F4A2
:101F1000809349044091AC035091AD036091AE03AE
:101F20007091AF038A019B01080F111D211D311D06
:101F3000C901B8010093AC031093AD032093AE0325
:101F40003093AF030091A8031091A9032091AA0335
:101F50003091AB03A90198012F5F3F4F4F4F5F4F67
:101F60002093A8033093A9034093AA035093AB0393
:101F70002536310541055105C8F16ED320934F0434
:101F80003093500440935104509352041092AC0388
:101F90001092AD031092AE031092AF031092A803FB
:101FA0001092A9031092AA031092AB031FC08FEFE7
:101FB000809353041092490410924F0410925004DD
:101FC00010925104109252041092AC031092AD037F
:101FD0001092AE031092AF031092A8031092A903BF
:101FE0001092AA031092AB0310925A01C093B0034F
:101FF000CF911F910F910895CF93DF93CDB7DEB7A7
:1020000069970FB6F894DEBF0FBECDBFEEDC62E07D
:1020100080E004DD60E480E001DD68E080E0FEDC7B
:1020200060E280E0FBDC0E94C904F8941092C500D5
:1020300080E18093C400E0ECF0E0808182608083E6
:1020400088E98093C10086E08093C2001D8A1E8AC1
:1020500080E48F8B29EC33E0398F288F95E0FE01E7
:102060007596DE01509601900D929A95E1F795E0F4
:10207000FE017096DE011B9601900D929A95E1F794
:1020800095E0FE013B96A4E5B4E001900D929A958F
:10209000E1F71D8A1E8A8F8B89E094E0998F888FE3
:1020A00085E0FE017596DE01169601900D928A95E7
:1020B000E1F785E0FE013696DE01119601900D9262
:1020C0008A95E1F785E0FE013196AAE4B4E001903B
:1020D0000D928A95E1F783E686BD14BC85E085BD47
:1020E00081E080936E002BEF3BE0309385002093DE
:1020F00084001092800094E09093810080936F00A0
:102100001092B2001092B00087E08093B1007894F2
:1021100088E491E00DDC8FE29DE090935C04809375
:102120005B04429A66E174E380E090E08DDC4298C3
:102130006BEA71E184E090E087DC429A66E174E347
:1021400080E090E081DC42986BEA71E184E090E00D
:102150007BDC429A66E174E380E090E075DC4298B3
:1021600069960FB6F894DEBF0FBECDBFDF91CF9159
:102170000895CF93C82F8A3011F48DE0FADFE091F3
:10218000C703F091C803309741F0CF0101969093B7
:10219000C8038093C703C08308C0E0915B04F0913B
:1021A0005C04309711F08C2F0995CF910895CF934F
:1021B000DF93EC018881882329F02196DADF899169
:1021C0008111FCCFDF91CF9108952F923F924F92D2
:1021D0005F926F927F928F929F92AF92BF92CF92B7
:1021E000DF92EF92FF920F931F93CF93DF93CDB7C0
:1021F000DEB76C970FB6F894DEBF0FBECDBF1C01E3
:102200007A8F698F02C0BA8EA98ED1018C918823F2
:1022100009F4C4C1853229F0BFEF2B1A3B0AA9DFAC
:10222000F4CFF1014181403349F4428191012D5FA6
:102230003F4F1901EE24E394F12C10C04D3231F0E0
:1022400032E0230E311CE12CF12C08C04281F10157
:1022500033961F016894EE24E1F8F12C80ED840F91
:102260008A30F0F400E010E0C801880F991F000FD9
:10227000111F000F111F000F111F080F191F040F4E
:10228000111D47FD1A9500531109FFEF2F1A3F0A40
:10229000F1013197408180ED840F8A3028F302C02C
:1022A00000E010E0842F8F7D8C3439F46894E2F8DC
:1022B000D1014C91F10131961F01442309F46EC103
:1022C00041361CF020EE240F01C0242F822F022E55
:1022D000000C990BAA0BBB0BFC01E254F109E7318E
:1022E000F10508F04EC0EC5CFF4FD8C1A98CBA8C48
:1022F000F2E0AF0EB11CA98DBA8DCD90DC90F60145
:102300008081882351F03196812C912C2FEF821AF5
:10231000920A81918111FACF02C0812C912CE1FCAB
:1023200013C0C40101968016910608F409C14C013E
:102330000BC03FEFE31AF30AE016F10608F4FDC004
:1023400048014FEF841A940AC60131DF80169106C6
:1023500008F059CF740180E20CDF5FEFE51AF50A4F
:10236000E016F106C0F3BA8EA98E4FCF098D1A8DF3
:102370000E5F1F4FA98DBA8D8C91FBDE1A8F098FCE
:1023800044CF842FF6DE41CFE2FE19C00F2EFAE0D3
:102390004F2EF02D512C04C06894442444F8512C45
:1023A000698D7A8D6C5F7F4FE98DFA8D8081918187
:1023B000A281B381243429F17A8F698F2FC00F2E27
:1023C000FAE04F2EF02D512C243471F4A98DBA8DE2
:1023D0006D917C91CB01770FAA0BBB0BE98DFA8D28
:1023E0003296FA8FE98F0FC0A98DBA8D6D917C91CD
:1023F000CB01A0E0B0E0E98DFA8D3296FA8FE98F3B
:102400000DC07A8F698FBB234CF4B095A095909541
:1024100081959F4FAF4FBF4F6894E4F8BC01CD0149
:10242000483711F427E201C027E0AE014F5F5F4F4C
:102430004A01A12CB12C612C712C1C8F0B8F122FF7
:1024400001C05601A301920107D1F62FE62F622F9A
:10245000732F842F952FFA3014F0E12FEF0F6501C1
:102460005FEFC51AD50AE05DD401ED934D0161150A
:1024700071058105910521F0B8E1CB16D10409F76A
:102480000B8D1C8DE4FE0CC0E1E0F0E0EC0FFD1FB5
:10249000EC0DFD1D2DE22083A5014E5F5F4F6A010B
:1024A000E0FC04C06894992495F804C00F2EF0E372
:1024B0009F2EF02DE1FC13C056015FEFA51AB50A5F
:1024C000C016D106B0F10CC08FEFE81AF80AE0167A
:1024D000F10660F158019FEFA91AB90A01C056012F
:1024E000EE24E394F12CEC0EFD1EEC0CFD1CA1E09F
:1024F000CA1AD108F70182917F013BDEC114D104D1
:10250000B1F7A016B10608F080CE750180E231DE89
:10251000FFEFEF1AFF0AE016F106C0F376CEE2FCF9
:102520003BCF6894442444F8512C5ECF892D21DEA2
:10253000CBCF892D1EDE7601C7CF80E21ADEF9CE21
:1025400080E217DE7401F5CEE98DFA8D80819181EC
:10255000A281B3813496FA8FE98F6894442441F8BC
:10256000512C5CCFE2FCF0CF6894442441F8512C0C
:102570002BCFE98DFA8D80819181A281B381349630
:10258000FA8FE98F6894442443F8512C47CFE2FC3A
:10259000F0CF6894442443F8512C26CF6C960FB6A4
:1025A000F894DEBF0FBECDBFDF91CF911F910F9189
:1025B000FF90EF90DF90CF90BF90AF909F908F9063
:1025C0007F906F905F904F903F902F900895CF93A2
:1025D000DF93CDB7DEB7BE016B5F7F4FFB0181910B
:1025E0009191BF01F2DDDF91CF9108950C948101AB
:1025F00008950C9499010895FFDC89EA92E09F9375
:102600008F93E5DF0E94C20360E070E089E291E011
:102610000E94600482EB92E09F938F93D8DF0F902B
:102620000F900F900F90C4E056DC0E94D203C9B9FE
:10263000FBCF97FB072E16F4009406D077FD08D049
:102640004CD007FC05D03EF4909581959F4F08959E
:10265000709561957F4F0895A1E21A2EAA1BBB1BAE
:10266000FD010DC0AA1FBB1FEE1FFF1FA217B3075E
:10267000E407F50720F0A21BB30BE40BF50B661F74
:10268000771F881F991F1A9469F760957095809538
:1026900090959B01AC01BD01CF010895EE0FFF1F86
:1026A0000590F491E02D0994A29FB001B39FC00161
:1026B000A39F700D811D1124911DB29F700D811D6E
:1026C0001124911D0895F0DFA59F900DB49F900DEA
:1026D000A49F800D911D11240895AA1BBB1B51E1DD
:1026E00007C0AA1FBB1FA617B70710F0A61BB70B82
:1026F000881F991F5A95A9F780959095BC01CD0127
:1027000008950F931F93CF93DF93FB01238121FD46
:1027100003C08FEF9FEF2CC022FF16C04681578168
:10272000248135814217530744F4A081B1819D0172
:102730002F5F3F4F318320838C93268137812F5F1A
:102740003F4F3783268314C08B01EC01FB010084CB
:10275000F185E02D0995892BE1F6D80116968D912A
:102760009C911797019617969C938E931697CE017E
:10277000DF91CF911F910F910895AEE0B0E0E2ECB0
:10278000F3E16EC20D891E8986E08C831A8309836A
:102790008FEF9FE79E838D83AE01475E5F4F6F890A
:1027A000788DCE01019608D0EF81F885E00FF11FFA
:1027B00010822E96E4E070C2ABE0B0E0E1EEF3E10F
:1027C00041C26C017B018A01FC0117821682838160
:1027D00081FFBFC1CE0101963C01F6019381F70153
:1027E00093FD859193FF81917F01882309F4ADC109
:1027F000853239F493FD859193FF81917F01853274
:1028000021F4B60190E07DDFE8CF912C212C312C12
:10281000FFE1F315D8F08B3279F038F4803279F09B
:102820008332A1F4232D20611DC08D3261F08033ED
:1028300069F4232D216016C0832D8260382EE32D8C
:10284000E4603E2E2AC0F32DF8601DC037FC2DC079
:1028500020ED280F2A3040F08E32B9F436FC75C1D5
:10286000232D2064322E19C036FE06C08AE0989EC1
:10287000200D1124922E11C0EAE02E9E200D11246D
:10288000222EF32DF0623F2E08C08C3621F4832DCA
:102890008068382E02C0883641F4F70193FD859197
:1028A00093FF81917F018111B3CF982F9F7D955424
:1028B000933028F40C5F1F4F9FE399830DC083363C
:1028C00031F0833771F0833509F055C020C0F8012D
:1028D000808189830E5F1F4F88248394912C53013C
:1028E00012C02801F2E04F0E511CF801A080B18007
:1028F00036FE03C0692D70E002C06FEF7FEFC501A7
:1029000038D14C018201F32DFF773F2E15C02801ED
:1029100022E0420E511CF801A080B18036FE03C0B7
:10292000692D70E002C06FEF7FEFC50117D14C0138
:10293000F32DF0683F2E820133FC19C0822D90E008
:1029400088169906A0F4B60180E290E0DADE2A94B7
:10295000F5CFF50137FC859137FE81915F01B60116
:1029600090E0CFDE21102A9421E0821A9108811490
:10297000910479F7E1C0843611F0893639F5F80110
:1029800037FE07C060817181828193810C5F1F4F88
:1029900008C060817181072E000C880B990B0E5FB7
:1029A0001F4FF32DFF763F2E97FF09C0909580951E
:1029B000709561957F4F8F4F9F4FF0683F2E2AE0B3
:1029C00030E0A301E1D0882E861844C0853731F469
:1029D000232D2F7EB22E2AE030E025C0932D997F43
:1029E000B92E8F36C1F018F4883579F0AEC0803733
:1029F00019F0883721F0A9C0E92FE061BE2EB4FE9E
:102A00000DC0FB2DF460BF2E09C034FE0AC0292F73
:102A10002660B22E06C028E030E005C020E130E09C
:102A200002C020E132E0F801B7FE07C06081718189
:102A3000828193810C5F1F4F06C06081718180E0AD
:102A400090E00E5F1F4FA3019FD0882E8618FB2DAC
:102A5000FF773F2E36FE0DC0232D2E7FA22E891428
:102A600058F434FE0BC032FC09C0832D8E7EA82E94
:102A700005C0B82CA32C03C0B82C01C0B92CA4FEEF
:102A80000FC0FE01E80DF11D8081803321F49A2DE5
:102A9000997EA92E09C0A2FE06C0B394B39404C0C7
:102AA0008A2D867809F0B394A3FC10C0A0FE06C05E
:102AB000B21480F4280C922C9B180DC0B21458F458
:102AC000B60180E290E01DDEB394F8CFB21418F4A2
:102AD0002B1802C0982C212CA4FE0FC0B60180E355
:102AE00090E00FDEA2FE16C0A1FC03C088E790E0D4
:102AF00002C088E590E0B6010CC08A2D867851F0BE
:102B0000A1FE02C08BE201C080E2A7FC8DE2B6010B
:102B100090E0F7DD891430F4B60180E390E0F1DD58
:102B20009A94F8CF8A94F301E80DF11D8081B601E3
:102B300090E0E7DD8110F6CF222009F44ECEB601F9
:102B400080E290E0DEDD2A94F7CFF601868197815E
:102B500002C08FEF9FEF2B96E2E190C0FC01059041
:102B6000615070400110D8F7809590958E0F9F1F8F
:102B70000895FC016150704001900110D8F78095D4
:102B800090958E0F9F1F0895FA01AA27283051F1C2
:102B9000203181F1E8946F936E7F6E5F7F4F8F4F8E
:102BA0009F4FAF4FB1E03ED0B4E03CD0670F781FED
:102BB000891F9A1FA11D680F791F8A1F911DA11DD2
:102BC0006A0F711D811D911DA11D20D009F468940B
:102BD0003F912AE0269F11243019305D3193DEF6B3
:102BE000CF010895462F4770405D4193B3E00FD069
:102BF000C9F7F6CF462F4F70405D4A3318F0495D54
:102C000031FD4052419302D0A9F7EACFB4E0A69536
:102C10009795879577956795BA95C9F70097610558
:102C2000710508959B01AC010A2E069457954795AE
:102C300037952795BA95C9F7620F731F841F951FA3
:102C4000A01D08952F923F924F925F926F927F92B4
:102C50008F929F92AF92BF92CF92DF92EF92FF92AC
:102C60000F931F93CF93DF93CDB7DEB7CA1BDB0B58
:102C70000FB6F894DEBF0FBECDBF09942A883988FD
:102C800048885F846E847D848C849B84AA84B98404
:102C9000C884DF80EE80FD800C811B81AA81B98110
:102CA000CE0FD11D0FB6F894DEBF0FBECDBFED0124
:062CB0000895F894FFCF27
:102CB6000A00008C016900000000000000C301AF9B
:102CC60000000000000000D201FC0000000000002F
:102CD60000DE0122010000000000001A024A010085
:102CE6000000003D0101011F010B0100000000284A
:102CF600021A0200000000FF00380F1209E1070067
:102D060000005032FFFFFFFF0000015899ABC90FCA
:102D1600E2F7AA0003020500030501040602040007
:102D2600000000FFFF00000000000000FFFFFF2C76
:102D3600014144502057616974210A006164702082
:102D460070726F636573730042757A7A6572207765
:102D56006F726B6564210A0042757A7A6572205734
:102D6600616974210A0042757A7A657220456E643B
:102D7600210A0062757A7A65722070726F636573D4
:102D860073006370752070726F63657373006C6592
:102D9600642070726F63657373005374617274207C
:102DA600746865204F7065726174696F6E2053791F
:102DB6007374656D2E0A004372656174696E6720CF
:102DC600546872656164732E0A00737461727420AC
:102DD60070726F63657373004576656E74207469EF
:102DE6006D6572001F1C1F1E1F1E1F1F1E1F1E1F2C
:102DF6001F1D1F1E1F1E1F1F1E1F1E1F4370755FD8
:102E06004D61783A252525640D004370755F4D693F
:102E16006E3A252525640D0D005374617475732073
:102E26006D657373616765730053746174757320A0
:102E36007465726D696E616C0047656E656C004302
:102E460050552055736167652056616C7565004362
:102E560050552055736167650052657374617274CD
:0A2E66000A006C6F6F70210A000073
:00000001FF
